:020000040800F2
:1000000000000120D5210008191900082119000855
:1000100029190008311900083919000800000000EA
:10002000000000000000000000000000411900086E
:100030004F190008000000005D1900086B19000846
:100040002522000825220008252200082522000874
:100050002522000825220008252200082522000864
:100060002522000825220008252200082522000854
:100070002522000825220008252200082522000844
:100080002522000825220008252200080000000083
:100090000000000000000000000000002522000811
:1000A000791900088D190008A1190008B519000870
:1000B0002522000825220008252200082522000804
:1000C000252200082522000825220008C919000859
:1000D00025220008DD190008F119000800000000C1
:1000E0002522000825220008252200080000000023
:1000F00000000000000000000000000025220008B1
:100100000000000025220008252200082522000802
:1001100000000000000000000000000000000000DF
:100120002522000825220008252200082522000893
:100130002522000800000000000000000000000070
:100140000000000000000000000000002522000860
:10015000252200082522000825220008051A00088B
:1001600025220008252200080000000000000000F1
:10017000000000000000000000000000000000007F
:100180000000000025220008000000000000000020
:04019000252200081C
:1001A00010B5054C237833B9044B13B10448AFF3B1
:1001B00000800123237010BDF0010020000000002A
:1001C0002890000808B5034B1BB103490348AFF35F
:1001D000008008BD00000000F40100202890000805
:1001E00001F0FF01102A2BDB10F0070F08D010F8E8
:1001F000013B013A8B422DD010F0070F42B3F6D1EC
:10020000F0B441EA012141EA014122F007047FF004
:1002100000070023F0E80256083C85EA010586EA5B
:10022000010685FA47F5A3FA87F586FA47F6A5FA97
:1002300087F68EB9EED1F0BC01F0FF0102F00702A3
:1002400032B110F8013B013A83EA010313B1F8D14E
:100250000020704701387047002D06BF354603382F
:10026000073815F0010F07D1013015F4807F02BF68
:10027000013015F4C03F0130F0BC0138704700BFB9
:10028000034613F8012B002AFBD1181A01387047D6
:1002900081F0004102E000BF83F0004330B54FEA37
:1002A00041044FEA430594EA050F08BF90EA020FA4
:1002B0001FBF54EA000C55EA020C7FEA645C7FEA37
:1002C000655C00F0E2804FEA5454D4EB5555B8BF5A
:1002D0006D420CDD2C4480EA020281EA030382EACB
:1002E000000083EA010180EA020281EA0303362D5D
:1002F00088BF30BD11F0004F4FEA01314FF4801C30
:100300004CEA113102D0404261EB410113F0004F41
:100310004FEA03334CEA133302D0524263EB4303F8
:1003200094EA050F00F0A780A4F10104D5F1200E96
:100330000DDB02FA0EFC22FA05F2801841F10001F1
:1003400003FA0EF2801843FA05F359410EE0A5F1C5
:1003500020050EF1200E012A03FA0EFC28BF4CF0F6
:10036000020C43FA05F3C01851EBE37101F00045AC
:1003700007D54FF0000EDCF1000C7EEB00006EEBB9
:100380000101B1F5801F1BD3B1F5001F0CD3490843
:100390005FEA30004FEA3C0C04F101044FEA44529A
:1003A00012F5800F80F09A80BCF1004F08BF5FEA21
:1003B000500C50F1000041EB045141EA050130BD01
:1003C0005FEA4C0C404141EB0101013C28BFB1F513
:1003D000801FE9D291F0000F04BF01460020B1FA5E
:1003E00081F308BF2033A3F10B03B3F120020CDA31
:1003F0000C3208DD02F1140CC2F10C0201FA0CF00F
:1004000021FA02F10CE002F11402D8BFC2F1200C73
:1004100001FA02F120FA0CFCDCBF41EA0C01904029
:10042000E41AA2BF01EB0451294330BD6FEA040472
:100430001F3C1CDA0C340EDC04F11404C4F120025D
:1004400020FA04F001FA02F340EA030021FA04F36F
:1004500045EA030130BDC4F10C04C4F1200220FAC6
:1004600002F001FA04F340EA0300294630BD21FA04
:1004700004F0294630BD94F0000F83F4801306BFCA
:1004800081F480110134013D4EE77FEA645C18BFBE
:100490007FEA655C29D094EA050F08BF90EA020F55
:1004A00005D054EA000C04BF1946104630BD91EA4D
:1004B000030F1EBF0021002030BD5FEA545C05D150
:1004C0004000494128BF41F0004130BD14F580048F
:1004D0003CBF01F5801130BD01F0004545F0FE4103
:1004E00041F470014FF0000030BD7FEA645C1ABF38
:1004F000194610467FEA655C1CBF0B46024650EA6F
:10050000013406BF52EA033591EA030F41F400219A
:1005100030BD00BF90F0000F04BF0021704730B520
:100520004FF4806404F132044FF000054FF00001F5
:1005300050E700BF90F0000F04BF0021704730B5B6
:100540004FF4806404F1320410F0004548BF40428B
:100550004FF000013EE700BF42004FEAE2014FEAE0
:1005600031014FEA02701FBF12F07F4393F07F4FBB
:1005700081F06051704732F07F4208BF704793F0BE
:100580007F4F04BF41F40021704730B54FF46074D1
:1005900001F0004521F000411CE700BF50EA0102D4
:1005A00008BF704730B54FF000050AE050EA01027D
:1005B00008BF704730B511F0004502D5404261EBED
:1005C00041014FF4806404F132045FEA915C3FF42E
:1005D000D8AE4FF003025FEADC0C18BF03325FEACB
:1005E000DC0C18BF033202EBDC02C2F1200300FA7C
:1005F00003FC20FA02F001FA03FE40EA0E0021FAA1
:1006000002F11444BDE600BF70B54FF0FF0C4CF48E
:10061000E06C1CEA11541DBF1CEA135594EA0C0F40
:1006200095EA0C0F00F0DEF82C4481EA030621EA7B
:100630004C5123EA4C5350EA013518BF52EA0335B6
:1006400041F4801143F4801338D0A0FB02CE4FF068
:100650000005E1FB02E506F00042E0FB03E54FF098
:100660000006E1FB03569CF0000F18BF4EF0010E90
:10067000A4F1FF04B6F5007F64F5407404D25FEA8C
:100680004E0E6D4146EB060642EAC62141EA55513F
:100690004FEAC52040EA5E504FEACE2EB4F1FD0C81
:1006A00088BFBCF5E06F1ED8BEF1004F08BF5FEAFF
:1006B000500E50F1000041EB045170BD06F00046B1
:1006C00046EA010140EA020081EA0301B4EB5C045E
:1006D000C2BFD4EB0C0541EA045170BD41F4801156
:1006E0004FF0000E013C00F3AB8014F1360FDEBF7B
:1006F000002001F0004170BDC4F10004203C35DA57
:100700000C341BDC04F11404C4F1200500FA05F3D9
:1007100020FA04F001FA05F240EA020001F000427A
:1007200021F0004110EBD37021FA04F642EB0601F0
:100730005EEA430E08BF20EAD37070BDC4F10C041A
:10074000C4F1200500FA04F320FA05F001FA04F2DE
:1007500040EA020001F0004110EBD37041F10001CA
:100760005EEA430E08BF20EAD37070BDC4F12005D5
:1007700000FA05F24EEA020E20FA04F301FA05F23D
:1007800043EA020321FA04F001F0004121FA04F2E5
:1007900020EA020000EBD3705EEA430E08BF20EAB5
:1007A000D37070BD94F0000F0FD101F000464000EF
:1007B00041EB010111F4801F08BF013CF7D041EA71
:1007C000060195F0000F18BF704703F00046520075
:1007D00043EB030313F4801F08BF013DF7D043EA46
:1007E0000603704794EA0C0F0CEA135518BF95EAFC
:1007F0000C0F0CD050EA410618BF52EA4306D1D183
:1008000081EA030101F000414FF0000070BD50EAA1
:10081000410606BF1046194652EA430619D094EA2B
:100820000C0F02D150EA013613D195EA0C0F05D115
:1008300052EA03361CBF104619460AD181EA030169
:1008400001F0004141F0FE4141F470014FF0000021
:1008500070BD41F0FE4141F4780170BD70B54FF0BC
:10086000FF0C4CF4E06C1CEA11541DBF1CEA13553C
:1008700094EA0C0F95EA0C0F00F0A7F8A4EB05041E
:1008800081EA030E52EA03354FEA013100F0888015
:100890004FEA03334FF0805545EA131343EA1263DE
:1008A0004FEA022245EA111545EA10654FEA002693
:1008B0000EF000419D4208BF964244F1FD0404F54C
:1008C000407402D25B084FEA3202B61A65EB0305A8
:1008D0005B084FEA32024FF480104FF4002CB6EB65
:1008E000020E75EB030E22BFB61A754640EA0C00E5
:1008F0005B084FEA3202B6EB020E75EB030E22BF25
:10090000B61A754640EA5C005B084FEA3202B6EB65
:10091000020E75EB030E22BFB61A754640EA9C0024
:100920005B084FEA3202B6EB020E75EB030E22BFF4
:10093000B61A754640EADC0055EA060E18D04FEAB2
:10094000051545EA16754FEA06164FEAC30343EA52
:1009500052734FEAC2025FEA1C1CC0D111F4801F1F
:100960000BD141EA00014FF000004FF0004CB6E718
:1009700011F4801F04BF01430020B4F1FD0C88BFB7
:10098000BCF5E06F3FF6AFAEB5EB030C04BFB6EBC2
:10099000020C5FEA500C50F1000041EB045170BDB5
:1009A0000EF0004E4EEA113114EB5C04C2BFD4EBE2
:1009B0000C0541EA045170BD41F480114FF0000E66
:1009C000013C90E645EA060E8DE60CEA135594EAE2
:1009D0000C0F08BF95EA0C0F3FF43BAF94EA0C0FE5
:1009E0000AD150EA01347FF434AF95EA0C0F7FF45A
:1009F00025AF104619462CE795EA0C0F06D152EAAE
:100A000003353FF4FDAE1046194622E750EA410691
:100A100018BF52EA43067FF4C5AE50EA41047FF4A2
:100A20000DAF52EA43057FF4EBAE12E74FF0FF3C07
:100A300006E000BF4FF0010C02E000BF4FF0010CD8
:100A40004DF804CD4FEA410C7FEA6C5C4FEA430C51
:100A500018BF7FEA6C5C1BD001B050EA410C0CBFA0
:100A600052EA430C91EA030F02BF90EA020F002002
:100A7000704710F1000F91EA030F58BF994208BF69
:100A800090422CBFD8176FEAE37040F00100704726
:100A90004FEA410C7FEA6C5C02D150EA013C07D17D
:100AA0004FEA430C7FEA6C5CD6D152EA033CD3D0C8
:100AB0005DF8040B704700BF8446104662468C46C2
:100AC0001946634600E000BF01B5FFF7B7FF0028F5
:100AD00048BF10F1000F01BD4DF808EDFFF7F4FF1E
:100AE0000CBF012000205DF808FB00BF4DF808EDA9
:100AF000FFF7EAFF34BF012000205DF808FB00BFCC
:100B00004DF808EDFFF7E0FF94BF012000205DF8ED
:100B100008FB00BF4DF808EDFFF7CEFF94BF0120A2
:100B200000205DF808FB00BF4DF808EDFFF7C4FF9B
:100B300034BF012000205DF808FB00BF4FEA410CE4
:100B40007FEA6C5C02D150EA013C0AD14FEA430CC7
:100B50007FEA6C5C02D152EA033C02D14FF0000004
:100B600070474FF0010070474FEA410212F5001242
:100B700015D211D56FF47873B3EB625212D94FEAE4
:100B8000C12343F0004343EA505311F0004F23FACE
:100B900002F018BF404270474FF00000704750EA23
:100BA000013005D111F0004008BF6FF000407047E0
:100BB0004FF00000704700BF4A0011D212F500123A
:100BC00011D20DD56FF47873B3EB62520ED44FEAA5
:100BD000C12343F0004343EA505323FA02F0704725
:100BE0004FF00000704750EA013002D14FF0FF3063
:100BF00070474FF00000704753B94AB9002908BF49
:100C000000281CBF4FF0FF314FF0FF3000F06AB9F1
:100C1000ADF1080C6DE904CE00F006F8DDF804E053
:100C2000DDE9022304B070472DE9F047089D0C462A
:100C3000002B4ED194468C458646B2FA82F262D998
:100C40004AB1C2F12003914020FA03F30CFA02FCEE
:100C5000194300FA02FE4FEA1C471FFA8CF6B1FB5B
:100C6000F7F44FEA1E4307FB141143EA014304FB68
:100C700006F199420AD91CEB030304F1FF3080F01E
:100C80001281994240F20F81023C6344591A1FFAC3
:100C90008EF3B1FBF7F007FB101143EA014300FBB1
:100CA00006F69E420AD91CEB030300F1FF3180F0E7
:100CB000FC809E4240F2F980634402389B1B40EA6C
:100CC000044000211DB1D3400022C5E90032BDE837
:100CD000F0878B4205D90DB1C5E900010021084616
:100CE000F5E7B3FA83F1002946D1A34202D390423B
:100CF000C0F0F080861A64EB03030120002DE6D0DB
:100D0000C5E90063E3E7002A40F09080A1EB0C0402
:100D10004FEA1C481FFA8CF70121B4FBF8F64FEAA2
:100D20001E4308FB164443EA044307FB06F09842BF
:100D300008D91CEB030306F1FF3402D2984200F2FB
:100D4000CD8026461C1A1FFA8EF3B4FBF8F008FB80
:100D5000104443EA044300FB07F79F4208D91CEB09
:100D6000030300F1FF3402D29F4200F2B08020461C
:100D7000DB1B40EA0640A5E7C1F120068B4022FAC2
:100D800006F71F4320FA06FC04FA01F343EA0C03BA
:100D9000F44000FA01F8380C4FEA1349B4FBF0FEB6
:100DA0001FFA87FC00FB1E4449EA04440EFB0CF9C1
:100DB000A14502FA01F20AD93C190EF1FF3A80F07E
:100DC0008480A14540F28180AEF1020E3C44A4EB48
:100DD00009041FFA83F9B4FBF0F300FB134449EA5A
:100DE000044403FB0CFCA44507D93C1903F1FF3074
:100DF00067D2A44565D9023B3C4443EA0E40A0FBC0
:100E00000293A4EB0C049C42CE469C4651D34ED098
:100E100055B1B8EB0E0364EB0C0404FA06F6CB40B4
:100E20001E43CC40C5E90064002150E7C2F1200315
:100E300020FA03F10CFA02FC24FA03F394400C4369
:100E40004FEA1C4800FA02FE1FFA8CF7B3FBF8F0D9
:100E500008FB1031230C43EA014300FB07F19942E0
:100E600008D91CEB030300F1FF362CD299422AD992
:100E7000023863445B1AA4B2B3FBF8F108FB1133E8
:100E800044EA034401FB07F3A34208D91CEB040422
:100E900001F1FF3613D2A34211D902396444E41A96
:100EA00041EA004139E70446F0E6084606E7C8454E
:100EB000AED2B9EB020E63EB070C0138A8E731465E
:100EC000EDE7034699E73046D4E7D6467FE763442B
:100ED00002384DE70646234608460FE7023E6344C4
:100EE00030E700BF704700BF80B588B000AF07F1A2
:100EF0000C0300221A605A609A60DA601A610023BB
:100F0000BB60334B1B6B324A43F004031363304B1B
:100F10001B6B03F00403BB60BB6800237B602C4B9E
:100F20001B6B2B4A43F001031363294B1B6B03F02C
:100F300001037B607B6800233B60254B1B6B244ACD
:100F400043F002031363224B1B6B03F002033B606D
:100F50003B68002242F20F011E4801F023FD0022EF
:100F600040211D4801F01EFD00220F211B4801F009
:100F700019FD42F20F03FB6001233B6100237B61FB
:100F80000023BB6107F10C031946124801F086FBF0
:100F90004023FB6001233B6100237B610023BB6195
:100FA00007F10C0319460C4801F078FB0F23FB6096
:100FB00001233B6100237B610023BB6107F10C032C
:100FC0001946064801F06AFB00BF2037BD4680BDC8
:100FD00000380240000802400000024000040240C5
:100FE00080B582B000AF78607B681B7F022B78D120
:100FF000414B1B78002B1AD10421786803F0FAFAD0
:1010000003463E4A13603C4B01221A707B681B6802
:101010001A6A7B681B6822F0A0021A627B681B6850
:101020001A6A7B681B6842F020021A6259E0324B50
:101030001B78012B55D10421786803F0DBFA0346B5
:101040002F4A13607B681B6800225A622C4B1A6877
:101050002A4B1B689A4207D9294B1A68274B1B68F1
:10106000D31A284A13600FE0244B1A68244B1B68DC
:101070009A4209D9224B1A68204B1B68D31A03F5F0
:101080007F43FF331F4A13601E4B1B681846FFF750
:1010900041FA17A3D3E90023FFF7B6FA02460B463D
:1010A00010461946FFF788FD0346DAB2164B1A7050
:1010B000114B00221A707B681B681A6A7B681B68D8
:1010C00022F0A0021A627B681A687B681B68126AA9
:1010D0001A620E4B1B68DA680C4B1B6822F0040284
:1010E000DA6000BF0837BD4680BD00BFAFF30080A7
:1010F0009CC420B07268913F180200200C020020AE
:101100001002002014020020190200207C0200209E
:1011100080B582B000AF78607B68144A934205D1F5
:1011200001221349114804F024F81AE07B68114A9F
:10113000934216D1104B1B781A46104B13440122D0
:1011400019460C4804F015F80B4B1B780133DAB242
:10115000094B1A70084B1B78022B02D1064B002258
:101160001A7000BF0837BD4680BD00BF0C030020C9
:101170001E02002054030020000000201C0200205A
:1011800080B58AB000AF01F04FF800F091FAFFF798
:10119000ABFE00F019FD00F0DFFE00F0B3FE00F042
:1011A00005FF00F085FD00F0E9FA0421BD4802F0DA
:1011B000F1FD0122BC49BD4803F0DBFF0122BC491F
:1011C000BC4803F0D6FF4FF0FF330122BA49BB48B9
:1011D00002F0FDF8BA4805F0B9F8BA4B1B78222B9B
:1011E00003D9B94804F040FF32E0B64B1B781E2B00
:1011F00007D9B44B1B78222B03D8B34804F07EFFE9
:1012000026E0B04B1B781B2B07D9AE4B1B781E2B4F
:1012100003D8AD4804F0BCFF1AE0AA4B1B78172B8B
:1012200007D9A84B1B781B2B03D8A74804F0FAFF5B
:101230000EE0A44B1B78132B07D9A24B1B78172B5E
:1012400003D8A14805F038F802E09F4804F00CFFED
:10125000974B1B781A463B469C49184605F0B6FD4D
:101260003B461846FFF70CF803469AB239464FF44E
:101270007A73974803F0F2FE8D4B5B781A463B4633
:101280009449184605F0A2FD3B461846FEF7F8FFC4
:1012900003469AB239464FF47A738D4803F0DEFE66
:1012A000834B1B78262B2ED9002201218A4801F07E
:1012B00079FB00220221884801F074FB00220421FE
:1012C000854801F06FFB00220821834801F06AFB8A
:1012D00000220121814801F065FB002202217F48A4
:1012E00001F060FB002204217C4801F05BFB00223E
:1012F00008217A4801F056FB00224FF4005176484D
:1013000001F050FBC2E1684B1B78DBB2613B122B52
:1013100000F2A88001A252F823F000BF6913000870
:101320006514000865140008BD1300086514000862
:10133000E7130008111400083B14000865140008A6
:101340006514000865140008651400086514000899
:101350006514000865140008651400086514000889
:101360006514000893130008012201215A4801F076
:1013700019FB00220221584801F014FB002204212D
:10138000554801F00FFB00220821534801F00AFBE9
:1013900069E000220121504801F004FB01220221F2
:1013A0004D4801F0FFFA002204214B4801F0FAFAFF
:1013B00000220821484801F0F5FA54E000220121FA
:1013C000454801F0EFFA00220221434801F0EAFA11
:1013D00001220421404801F0E5FA002208213E489C
:1013E00001F0E0FA3FE0002201213B4801F0DAFA87
:1013F00000220221384801F0D5FA002204213648A3
:1014000001F0D0FA01220821334801F0CBFA2AE09A
:1014100001220121304801F0C5FA012202212E48A3
:1014200001F0C0FA012204212B4801F0BBFA01228D
:101430000821294801F0B6FA15E0002201212648CA
:1014400001F0B0FA00220221234801F0ABFA002299
:101450000421214801F0A6FA002208211E4801F0CB
:10146000A1FA00E000BF174B1B78222B38D90022CD
:1014700001211A4801F096FA00220221174801F0D2
:1014800091FA00220421154801F08CFA002208216B
:10149000124801F087FA00224FF400510E4801F083
:1014A00081FAF3E07C0200201E0200200C030020E1
:1014B0001C020020540300201D02002020020020F6
:1014C00018000020190200201000002040900008A1
:1014D0009C030020509000080008024000040240D5
:1014E0006D4B1B781E2B1ED96B4B1B78222B1AD8E9
:1014F00001220121694801F055FA002202216748C2
:1015000001F050FA00220421644801F04BFA002255
:101510000821624801F046FA00224FF40051604869
:1015200001F040FA82E05C4B1B781B2B1ED95A4B12
:101530001B781E2B1AD801220121584801F032FADB
:1015400001220221554801F02DFA002204215348BE
:1015500001F028FA00220821504801F023FA002265
:101560004FF400514E4801F01DFA5FE04A4B1B78E2
:10157000172B1ED9484B1B781B2B1AD8012201218F
:10158000464801F00FFA01220221444801F00AFA0C
:1015900001220421414801F005FA002208213F48B8
:1015A00001F000FA00224FF400513D4801F0FAF931
:1015B0003CE0394B1B78132B1ED9374B1B78172B6C
:1015C0001AD801220121354801F0ECF9012202214B
:1015D000324801F0E7F901220421304801F0E2F934
:1015E000012208212D4801F0DDF900224FF40051BD
:1015F0002B4801F0D7F919E001220121274801F019
:10160000D1F901220221254801F0CCF9012204215F
:10161000224801F0C7F901220821204801F0C2F94F
:1016200001224FF400511E4801F0BCF92EE00121C7
:101630001B4801F0D0F90221184801F0CCF904212F
:10164000174801F0C8F90821144801F0C4F9012134
:10165000124801F0C0F90221114801F0BCF904213F
:101660000E4801F0B8F908210D4801F0B4F94FF423
:1016700000510B4801F0AFF93C2000F047FE4FF05D
:10168000FF3301220749084801F0A1FE074B5B78B0
:10169000272BCCD897E500BF190200200004024098
:1016A000000802401D020020200200201C02002031
:1016B00080B594B000AF07F1200330220021184616
:1016C00005F0E7FB07F10C0300221A605A609A60EC
:1016D000DA601A610023BB60234B1B6C224A43F083
:1016E00080531364204B1B6C03F08053BB60BB68BA
:1016F00000237B601D4B1B6823F440431B4A43F4CB
:1017000000431360194B1B6803F440437B607B6804
:1017100002233B620123FB6210233B630023BB6374
:1017200007F12003184601F071F90346002B01D0A0
:1017300000F01EF80F23FB6000233B6100237B6158
:101740000023BB610023FB6107F10C030021184655
:1017500001F0D4FB0346002B01D000F009F800BFD4
:101760005037BD4680BD00BF0038024000700040C9
:1017700080B400AF72B600BF00BFFDE780B500AF18
:10178000174B184A1A60164B4FF482725A60144B6A
:1017900000229A60124B0022DA60114B00221A617B
:1017A0000F4B00225A610E4B4FF480229A610C4B72
:1017B0000022DA610A4B00221A62094B00225A62A7
:1017C000074B00229A62064B0A22DA62044801F0B3
:1017D00075FD0346002B01D0FFF7CAFF00BF80BD97
:1017E000200200200030014080B58AB000AF786050
:1017F00007F1140300221A605A609A60DA601A61D5
:101800007B681B682C4A934251D100233B612B4BD0
:101810005B6C2A4A43F480535364284B5B6C03F49B
:1018200080533B613B690023FB60244B1B6B234AC5
:1018300043F001031363214B1B6B03F00103FB60B7
:10184000FB680023BB601D4B1B6B1C4A43F002036B
:1018500013631A4B1B6B03F00203BB60BB68B0231E
:101860007B610223BB610023FB6103233B620523F1
:101870007B6207F114031946114800F00FFF102393
:101880007B610223BB610023FB6103233B620523D1
:101890007B6207F1140319460A4800F0FFFE00229C
:1018A0000021232000F031FE232000F04AFE00BF7B
:1018B0002837BD4680BD00BF0030014000380240DF
:1018C000000002400004024080B483B000AF002357
:1018D0007B60104B5B6C0F4A43F4804353640D4BA9
:1018E0005B6C03F480437B607B6800233B60094BA7
:1018F0001B6C084A43F080531364064B1B6C03F0C7
:1019000080533B603B6800BF0C37BD465DF8047BED
:10191000704700BF0038024080B400AF00BFFDE751
:1019200080B400AF00BFFDE780B400AF00BFFDE7AB
:1019300080B400AF00BFFDE780B400AF00BFFDE79B
:1019400080B400AF00BFBD465DF8047B704780B433
:1019500000AF00BFBD465DF8047B704780B400AFA8
:1019600000BFBD465DF8047B704780B500AF00F056
:10197000ADFC00BF80BD000080B500AF024802F0A2
:1019800023FB00BF80BD00BF7C02002080B500AFFC
:10199000024802F019FB00BF80BD00BF7C0200209E
:1019A00080B500AF024802F00FFB00BF80BD00BF52
:1019B0007C02002080B500AF024802F005FB00BFAA
:1019C00080BD00BF7C02002080B500AF024801F05E
:1019D00041FE00BF80BD00BF2002002080B500AFE7
:1019E000024803F0EBFB00BF80BD00BF0C030020EA
:1019F00080B500AF024803F0E1FB00BF80BD00BF2F
:101A00005403002080B500AF024803F0D7FB00BFAD
:101A100080BD00BF9C03002080B400AF01231846A6
:101A2000BD465DF8047B704780B582B000AF78603A
:101A3000396005F081FA034616221A604FF0FF3331
:101A400018460837BD4680BD80B582B000AF7860CB
:101A50004FF0FF317868FFF7E7FF00BFFDE780B583
:101A600086B000AFF860B9607A6000237B610AE05D
:101A7000AFF300800146BB685A1CBA60CAB21A7044
:101A80007B6901337B617A697B689A42F0DB7B6812
:101A900018461837BD4680BD80B586B000AFF860E7
:101AA000B9607A6000237B6109E0BB685A1CBA60A8
:101AB0001B781846AFF300807B6901337B617A693C
:101AC0007B689A42F1DB7B6818461837BD4680BDBB
:101AD00080B483B000AF78604FF0FF3318460C3706
:101AE000BD465DF8047B704780B483B000AF78607A
:101AF00039603B684FF400525A60002318460C3797
:101B0000BD465DF8047B704780B483B000AF786059
:101B1000012318460C37BD465DF8047B704780B43E
:101B200085B000AFF860B9607A60002318461437BA
:101B3000BD465DF8047B704780B586B000AF786025
:101B4000144A154BD31A7B617B693B61134B1B68AD
:101B5000002B02D1114B124A1A60104B1A687B6895
:101B600013443A699A4207D205F0E6F903460C227B
:101B70001A604FF0FF3309E0084B1B68FB60074B0E
:101B80001A687B681344054A1360FB6818461837C7
:101B9000BD4680BD00000120000400007802002046
:101BA0003805002080B400AF064BD3F88830054AD2
:101BB00043F47003C2F8883000BFBD465DF8047B73
:101BC000704700BF00ED00E080B58AB000AF07F1BC
:101BD000180300221A605A609A60DA6007F1100355
:101BE00000221A605A603B4600221A605A609A60CE
:101BF000DA602D4B2D4A1A602B4B0F225A602A4B6C
:101C000000229A60284B4FF6FE72DA60264B0022C3
:101C10001A61254B00225A61234B00229A61224807
:101C200001F006FF0346002B01D0FFF7A1FD4FF4A2
:101C30008053BB6107F1180319461B4802F012FCE0
:101C40000346002B01D0FFF793FD174802F048F838
:101C50000346002B01D0FFF78BFD00233B610023DF
:101C60007B6107F1100319460F4803F025F903467D
:101C7000002B01D0FFF77CFD00233B6001237B603C
:101C80000023BB600023FB603B4604221946064844
:101C900002F08AFA0346002B01D0FFF769FD00BF6E
:101CA0002837BD4680BD00BF7C02002000000140F7
:101CB00080B58EB000AF07F1280300221A605A6089
:101CC0009A60DA6007F1200300221A605A603B1D17
:101CD00000221A605A609A60DA601A615A619A6149
:101CE0002D4B4FF080421A602B4B9F225A602A4B9B
:101CF00000229A60284B40F2CF72DA60264B002215
:101D00001A61254B00229A61234801F091FE034697
:101D1000002B01D0FFF72CFD4FF48053BB6207F17D
:101D2000280319461C4802F09DFB0346002B01D0F6
:101D3000FFF71EFD184801F0CAFE0346002B01D034
:101D4000FFF716FD00233B6200237B6207F12003AF
:101D50001946114803F0B0F80346002B01D0FFF7F5
:101D600007FD60237B600023BB600023FB60002332
:101D70007B613B1D00221946074802F0B1FA034679
:101D8000002B01D0FFF7F4FC034800F083F800BFFC
:101D90003837BD4680BD00BFC402002080B58AB080
:101DA00000AF786007F1140300221A605A609A604D
:101DB000DA601A617B681B68334A93424DD1002375
:101DC0003B61324B5B6C314A43F0010353642F4B50
:101DD0005B6C03F001033B613B690023FB602B4B11
:101DE0001B6B2A4A43F001031363284B1B6B03F060
:101DF0000103FB60FB684FF400737B610223BB614E
:101E00000023FB6100233B6201237B6207F1140383
:101E100019461F4800F042FC00220021182000F063
:101E200074FB182000F08DFB00220021192000F027
:101E30006CFB192000F085FB002200211A2000F025
:101E400064FB1A2000F07DFB002200211B2000F023
:101E50005CFB1B2000F075FB12E07B681B68B3F194
:101E6000804F0DD10023BB60084B1B6C074A43F029
:101E700001031364054B1B6C03F00103BB60BB68DB
:101E800000BF2837BD4680BD000001400038024039
:101E90000000024080B588B000AF786007F10C0305
:101EA00000221A605A609A60DA601A617B681B68C7
:101EB000B3F1804F1DD10023BB60104B1B6B0F4A49
:101EC00043F0010313630D4B1B6B03F00103BB6075
:101ED000BB680123FB6002233B6100237B6100237D
:101EE000BB610123FB6107F10C031946044800F0B4
:101EF000D5FB00BF2037BD4680BD00BF0038024083
:101F00000000024080B500AF114B124A1A60104B1E
:101F10004FF416525A600E4B00229A600C4B00226E
:101F2000DA600B4B00221A61094B0C225A61084BF4
:101F300000229A61064B0022DA61054803F03EF860
:101F40000346002B01D0FFF713FC00BF80BD00BF8C
:101F50000C0300200010014080B500AF114B124A65
:101F60001A60104B4FF416525A600E4B00229A60C2
:101F70000C4B0022DA600B4B00221A61094B0C2239
:101F80005A61084B00229A61064B0022DA6105482B
:101F900003F014F80346002B01D0FFF7E9FB00BF64
:101FA00080BD00BF540300200044004080B500AF56
:101FB000114B124A1A60104B4FF416525A600E4BD6
:101FC00000229A600C4B0022DA600B4B00221A614F
:101FD000094B0C225A61084B00229A61064B0022E1
:101FE000DA61054802F0EAFF0346002B01D0FFF753
:101FF000BFFB00BF80BD00BF9C0300200014014058
:1020000080B58EB000AF786007F1240300221A601B
:102010005A609A60DA601A617B681B68664A93426C
:1020200053D100233B62654B5B6C644A43F0100361
:102030005364624B5B6C03F010033B623B6A00230A
:10204000FB615E4B1B6B5D4A43F0010313635B4B0B
:102050001B6B03F00103FB61FB690023BB61574B62
:102060001B6B564A43F002031363544B1B6B03F084
:102070000203BB61BB694FF480637B620223BB62D6
:102080000023FB6203233B6307237B6307F12403E5
:1020900019464B4800F002FB40237B620223BB62DF
:1020A0000023FB6203233B6307237B6307F12403C5
:1020B0001946444800F0F2FA00220021252000F0E1
:1020C00024FA252000F03DFA72E07B681B683E4A46
:1020D000934234D100237B61384B1B6C374A43F465
:1020E00000331364354B1B6C03F400337B617B6955
:1020F00000233B61314B1B6B304A43F001031363F8
:102100002E4B1B6B03F001033B613B690C237B628D
:102110000223BB620023FB6203233B6307237B6331
:1021200007F124031946264800F0B8FA00220021DE
:10213000262000F0EAF9262000F003FA38E07B6858
:102140001B68224A934233D10023FB601B4B5B6C1C
:102150001A4A43F020035364184B5B6C03F02003CE
:10216000FB60FB680023BB60144B1B6B134A43F0FE
:1021700004031363114B1B6B03F00403BB60BB68C8
:10218000C0237B620223BB620023FB6203233B6309
:1021900008237B6307F1240319460D4800F07EFAFB
:1021A00000220021472000F0B0F9472000F0C9F9D3
:1021B00000BF3837BD4680BD0010014000380240E6
:1021C00000000240000402400044004000140140AE
:1021D00000080240DFF834D0FFF7E4FC0C480D495A
:1021E0000D4A002302E0D458C4500433C4188C4272
:1021F000F9D30A4A0A4C002301E013600432A242D8
:10220000FBD304F09FFEFEF7BBFF704700000120E8
:1022100000000020F0010020F8930008F0010020E9
:1022200034050020FEE7000080B500AF0E4B1B68B0
:102230000D4A43F4007313600B4B1B680A4A43F4C6
:1022400080631360084B1B68074A43F48073136074
:10225000032000F04FF90F2000F008F8FFF734FBDF
:102260000023184680BD00BF003C024080B582B00C
:1022700000AF7860124B1A68124B1B7819464FF466
:102280007A73B3FBF1F3B2FBF3F3184600F067F98E
:102290000346002B01D001230EE07B680F2B0AD8E8
:1022A000002279684FF0FF3000F02FF9064A7B6872
:1022B0001360002300E0012318460837BD4680BDA7
:1022C000040000200C0000200800002080B400AFB3
:1022D000064B1B781A46064B1B681344044A1360CE
:1022E00000BFBD465DF8047B704700BF0C000020B6
:1022F000E403002080B400AF034B1B681846BD46C2
:102300005DF8047B704700BFE403002080B584B013
:1023100000AF7860FFF7EEFFB8607B68FB60FB689A
:10232000B3F1FF3F05D00A4B1B781A46FB681344F4
:10233000FB6000BFFFF7DEFF0246BB68D31AFA68F6
:102340009A42F7D800BF00BF1037BD4680BD00BF1E
:102350000C00002080B485B000AF78607B6803F08B
:102360000703FB600C4BDB68BB60BA684FF6FF03EA
:102370001340BB60FB681A02BB68134343F0BF63A2
:1023800043F40033BB60044ABB68D36000BF14371A
:10239000BD465DF8047B704700ED00E080B400AFFF
:1023A000044BDB681B0A03F007031846BD465DF8C3
:1023B000047B704700ED00E080B483B000AF0346BB
:1023C000FB7197F90730002B0BDBFB7903F01F0241
:1023D000074997F907305B09012000FA02F241F83A
:1023E000232000BF0C37BD465DF8047B704700BF5B
:1023F00000E100E080B483B000AF03463960FB71B8
:1024000097F90730002B0ADB3B68DAB20C4997F9E1
:1024100007301201D2B20B4483F800230AE03B6874
:10242000DAB20849FB7903F00F03043B1201D2B280
:102430000B441A7600BF0C37BD465DF8047B70472D
:1024400000E100E000ED00E080B489B000AFF8608A
:10245000B9607A60FB6803F00703FB61FB69C3F1B5
:102460000703042B28BF0423BB61FB690433062B3D
:1024700002D9FB69033B00E000237B614FF0FF3290
:10248000BB6902FA03F3DA43BB681A407B699A40DE
:102490004FF0FF317B6901FA03F3D9437B680B40AE
:1024A000134318462437BD465DF8047B704700008F
:1024B00080B582B000AF78607B68013BB3F1807F6C
:1024C00001D301230FE00A4A7B68013B53600F21CF
:1024D0004FF0FF30FFF78EFF054B00229A60044B50
:1024E00007221A60002318460837BD4680BD00BF8A
:1024F00010E000E080B582B000AF78607868FFF748
:1025000029FF00BF0837BD4680BD80B586B000AF4B
:102510000346B9607A60FB7300237B61FFF73EFFDF
:1025200078617A68B9687869FFF78EFF024697F993
:102530000F3011461846FFF75DFF00BF1837BD4644
:1025400080BD80B582B000AF0346FB7197F90730BC
:102550001846FFF731FF00BF0837BD4680BD80B584
:1025600082B000AF78607868FFF7A2FF0346184694
:102570000837BD4680BD80B584B000AF78607B6809
:102580009B6DFB60FFF7B6FEB8607B6893F8353053
:10259000DBB2022B08D07B6880225A657B68002260
:1025A00083F83420012352E07B681B681A687B683B
:1025B0001B6822F016021A607B681B685A697B68E8
:1025C0001B6822F080025A617B681B6C002B03D1D0
:1025D0007B689B6C002B07D07B681B681A687B6844
:1025E0001B6822F008021A607B681B681A687B6807
:1025F0001B6822F001021A6013E0FFF77BFE02461F
:10260000BB68D31A052B0CD97B6820225A657B68DE
:10261000032283F835207B68002283F834200323CB
:1026200015E07B681B681B6803F00103002BE4D1F5
:102630007B68DB6D3F229A40FB689A607B680122D1
:1026400083F835207B68002283F834200023184665
:102650001037BD4680BD80B483B000AF78607B6822
:1026600093F83530DBB2022B04D07B6880225A65A8
:1026700001230CE07B68052283F835207B681B680A
:102680001A687B681B6822F001021A600023184652
:102690000C37BD465DF8047B7047000080B489B0FC
:1026A00000AF7860396000237B6100233B61002329
:1026B000BB610023FB6159E10122FB6902FA03F3CC
:1026C0007B613B681B687A6913403B613A697B69AF
:1026D0009A4240F048813B685B6803F00303012B9A
:1026E00005D03B685B6803F00303022B30D17B68A5
:1026F0009B68BB61FB695B00032202FA03F3DB43C7
:10270000BA691340BB613B68DA68FB695B0002FA97
:1027100003F3BA691343BB617B68BA699A607B684B
:102720005B68BB610122FB6902FA03F3DB43BA6910
:102730001340BB613B685B681B0903F00102FB6946
:1027400002FA03F3BA691343BB617B68BA695A6042
:102750003B685B6803F00303032B17D07B68DB68DF
:10276000BB61FB695B00032202FA03F3DB43BA6936
:102770001340BB613B689A68FB695B0002FA03F394
:10278000BA691343BB617B68BA69DA603B685B680E
:1027900003F00303022B23D1FB69DA087B680832BC
:1027A00053F82230BB61FB6903F007039B000F2243
:1027B00002FA03F3DB43BA691340BB613B681A6951
:1027C000FB6903F007039B0002FA03F3BA691343A2
:1027D000BB61FB69DA087B680832B96943F82210EB
:1027E0007B681B68BB61FB695B00032202FA03F391
:1027F000DB43BA691340BB613B685B6803F00302CB
:10280000FB695B0002FA03F3BA691343BB617B689F
:10281000BA691A603B685B6803F44033002B00F030
:10282000A2800023FB60574B5B6C564A43F4804305
:102830005364544B5B6C03F48043FB60FB68524A67
:10284000FB699B08023352F82330BB61FB6903F03C
:1028500003039B000F2202FA03F3DB43BA69134020
:10286000BB617B68494A934219D07B68484A9342CE
:1028700013D07B68474A93420DD07B68464A934207
:1028800007D07B68454A934201D1042308E007231F
:1028900006E0032304E0022302E0012300E000231A
:1028A000FA6902F0030292009340BA691343BB61D4
:1028B0003549FB699B080233BA6941F82320384B3C
:1028C0009B68BB613B69DB43BA691340BB613B68F2
:1028D0005B6803F48013002B03D0BA693B69134390
:1028E000BB612F4ABB6993602D4BDB68BB613B69C1
:1028F000DB43BA691340BB613B685B6803F40013B8
:10290000002B03D0BA693B691343BB61244ABB69FE
:10291000D360234B5B68BB613B69DB43BA691340FF
:10292000BB613B685B6803F40033002B03D0BA69DA
:102930003B691343BB611A4ABB695360184B1B6860
:10294000BB613B69DB43BA691340BB613B685B68B1
:1029500003F48033002B03D0BA693B691343BB6196
:102960000F4ABB691360FB690133FB61FB690F2BE5
:102970007FF6A2AE00BF00BF2437BD465DF8047BE2
:10298000704700BF0038024000380140000002409C
:102990000004024000080240000C02400010024007
:1029A000003C014080B483B000AF78600B467B8070
:1029B00013467B707B78002B03D07A887B689A6102
:1029C00003E07B881A047B689A6100BF0C37BD4620
:1029D0005DF8047B704780B485B000AF78600B462B
:1029E0007B807B685B69FB607A88FB6813401A0414
:1029F000FB68D9437B880B401A437B689A6100BF10
:102A00001437BD465DF8047B7047000080B586B082
:102A100000AF78607B68002B01D1012367E27B68FF
:102A20001B6803F00103002B75D0884B9B6803F0F3
:102A30000C03042B0CD0854B9B6803F00C03082B74
:102A400012D1824B5B6803F48003B3F5800F0BD186
:102A50007E4B1B6803F40033002B5BD07B685B6804
:102A6000002B57D1012342E27B685B68B3F5803FBE
:102A700006D1764B1B68754A43F4803313601DE022
:102A80007B685B68B3F5A02F0CD1704B1B686F4A55
:102A900043F4802313606D4B1B686C4A43F480330E
:102AA00013600BE0694B1B68684A23F480331360A2
:102AB000664B1B68654A23F4802313607B685B6860
:102AC000002B13D0FFF716FC386108E0FFF712FC6B
:102AD00002463B69D31A642B01D9032307E25B4BFF
:102AE0001B6803F40033002BF0D014E0FFF702FC66
:102AF000386108E0FFF7FEFB02463B69D31A642BFE
:102B000001D90323F3E1514B1B6803F40033002B7D
:102B1000F0D100E000BF7B681B6803F00203002BCC
:102B200063D04A4B9B6803F00C03002B0BD0474B40
:102B30009B6803F00C03082B1CD1444B5B6803F427
:102B40008003002B16D1414B1B6803F00203002BBE
:102B500005D07B68DB68012B01D00123C7E13B4B2B
:102B60001B6823F0F8027B681B69DB0037491343BD
:102B70000B603AE07B68DB68002B20D0344B0122ED
:102B80001A60FFF7B7FB386108E0FFF7B3FB0246B6
:102B90003B69D31A022B01D90323A8E12B4B1B68F5
:102BA00003F00203002BF0D0284B1B6823F0F8023F
:102BB0007B681B69DB00254913430B6015E0244B40
:102BC00000221A60FFF796FB386108E0FFF792FBDE
:102BD00002463B69D31A022B01D9032387E11B4B21
:102BE0001B6803F00203002BF0D17B681B6803F025
:102BF0000803002B36D07B685B69002B16D0154B81
:102C000001221A60FFF776FB386108E0FFF772FBDC
:102C100002463B69D31A022B01D9032367E10B4B10
:102C20005B6F03F00203002BF0D01BE0094B002286
:102C30001A60FFF75FFB38610EE0FFF75BFB0246AF
:102C40003B69D31A022B07D9032350E10038024015
:102C500000004742800E4742884B5B6F03F002033F
:102C6000002BEAD17B681B6803F00403002B00F003
:102C700097800023FB75814B1B6C03F08053002B66
:102C80000FD10023BB607D4B1B6C7C4A43F080530B
:102C900013647A4B1B6C03F08053BB60BB68012349
:102CA000FB75774B1B6803F48073002B18D1744BB2
:102CB0001B68734A43F480731360FFF71BFB386192
:102CC00008E0FFF717FB02463B69D31A022B01D934
:102CD00003230CE16A4B1B6803F48073002BF0D0D4
:102CE0007B689B68012B06D1644B1B6F634A43F0E2
:102CF000010313671CE07B689B68052B0CD15F4BBD
:102D00001B6F5E4A43F0040313675C4B1B6F5B4A07
:102D100043F0010313670BE0584B1B6F574A23F036
:102D200001031367554B1B6F544A23F004031367C9
:102D30007B689B68002B15D0FFF7DCFA38610AE04E
:102D4000FFF7D8FA02463B69D31A41F28832934220
:102D500001D90323CBE0494B1B6F03F00203002B87
:102D6000EED014E0FFF7C6FA38610AE0FFF7C2FAC6
:102D700002463B69D31A41F28832934201D90323B8
:102D8000B5E03E4B1B6F03F00203002BEED1FB7D41
:102D9000012B05D1394B1B6C384A23F08053136447
:102DA0007B689B69002B00F0A180344B9B6803F08B
:102DB0000C03082B5CD07B689B69022B41D1314B03
:102DC00000221A60FFF796FA386108E0FFF792FADE
:102DD00002463B69D31A022B01D9032387E0274B14
:102DE0001B6803F00073002BF0D17B68DA697B6805
:102DF0001B6A1A437B685B6A9B011A437B689B6A68
:102E00005B08013B1B041A437B68DB6A1B061B49FA
:102E100013434B601B4B01221A60FFF76BFA3861BA
:102E200008E0FFF767FA02463B69D31A022B01D983
:102E300003235CE0114B1B6803F00073002BF0D000
:102E400054E0104B00221A60FFF754FA386108E092
:102E5000FFF750FA02463B69D31A022B01D903232C
:102E600045E0064B1B6803F00073002BF0D13DE0FA
:102E70007B689B69012B07D1012338E000380240B1
:102E800000700040600047421B4B5B68FB607B6842
:102E90009B69012B28D0FB6803F480027B68DB6907
:102EA0009A4221D1FB6803F03F027B681B6A9A4279
:102EB0001AD1FA6847F6C07313407A68526A9201D1
:102EC000934211D1FB6803F440327B689B6A5B0834
:102ED000013B1B049A4207D1FB6803F070627B68D8
:102EE000DB6A1B069A4201D0012300E0002318464A
:102EF0001837BD4680BD00BF0038024080B584B0A1
:102F000000AF786039607B68002B01D10123CCE0F1
:102F1000684B1B6803F007033A689A420CD9654B6B
:102F20003A68D2B21A70634B1B6803F007033A6821
:102F30009A4201D00123B8E07B681B6803F00203CA
:102F4000002B20D07B681B6803F00403002B05D006
:102F5000594B9B68584A43F4E05393607B681B6865
:102F600003F00803002B05D0534B9B68524A43F4EF
:102F700060439360504B9B6823F0F0027B689B6832
:102F80004D4913438B607B681B6803F00103002BE2
:102F900044D07B685B68012B07D1474B1B6803F467
:102FA0000033002B19D101237FE07B685B68022B83
:102FB00003D07B685B68032B07D13F4B1B6803F092
:102FC0000073002B09D101236FE03B4B1B6803F01A
:102FD0000203002B01D1012367E0374B9B6823F0EC
:102FE00003027B685B68344913438B60FFF782F907
:102FF000F8600AE0FFF77EF90246FB68D31A41F257
:103000008832934201D903234FE02B4B9B6803F096
:103010000C027B685B689B009A42EBD1254B1B68D6
:1030200003F007033A689A420CD2224B3A68D2B2B4
:103030001A70204B1B6803F007033A689A4201D0CC
:10304000012332E07B681B6803F00403002B08D0E7
:10305000194B9B6823F4E0527B68DB6816491343E5
:103060008B607B681B6803F00803002B09D0124BB0
:103070009B6823F460427B681B69DB000E491343A5
:103080008B6000F021F802460B4B9B681B0903F094
:103090000F030A49CB5C22FA03F3094A1360094B78
:1030A0001B681846FFF7E2F8002318461037BD46A4
:1030B00080BD00BF003C0240003802406090000824
:1030C00004000020080000202DE9B04F90B000AFB0
:1030D00000237B630023FB6300233B630023BB636C
:1030E000594B9B6803F00C03082B0DD0082B00F202
:1030F000A180002B02D0042B03D09BE0534BBB6379
:103100009BE0534BBB6398E04F4B5B6803F03F037E
:103110007B634D4B5B6803F48003002B28D04A4B44
:103120005B689B0900223B627A623B6AC3F308003A
:103130000021474B03FB01F2002300FB03F3134480
:10314000434AA0FB0212FA620A46BA62FA6A1344C0
:10315000FB627B6B0022BB61FA61D7E90623D7E9EA
:103160000A01FDF749FD02460B461346FB6353E097
:10317000354B5B689B0900223B617A613B69C3F375
:10318000080A4FF0000B52465B464FF000004FF02C
:103190000001590141EAD261500102460B46B2EBEF
:1031A0000A0863EB0B094FF000024FF000034FEAEF
:1031B000891343EA98634FEA8812B2EB080463EB81
:1031C00009054FF000024FF00003EB0043EA54738F
:1031D000E20014461D4614EB0A033B6045EB0B036B
:1031E0007B604FF000024FF00003D7E9004529460D
:1031F0008B02214643EA915321468A021046194622
:103200007B6B0022BB60FA60D7E90223FDF7F4FC78
:1032100002460B461346FB630B4B5B681B0C03F02B
:10322000030301335B003B63FA6B3B6BB2FBF3F3CD
:10323000BB6302E0054BBB6300BFBB6B1846403766
:10324000BD46BDE8B08F00BF003802400024F40046
:1032500040787D0180B400AF034B1B681846BD4623
:103260005DF8047B704700BF0400002080B500AF0C
:10327000FFF7F0FF0246054B9B689B0A03F007032C
:103280000349CB5C22FA03F3184680BD00380240A4
:103290007090000880B500AFFFF7DCFF0246054BD9
:1032A0009B685B0B03F007030349CB5C22FA03F333
:1032B000184680BD003802407090000880B582B08A
:1032C00000AF78607B68002B01D101237BE07B6835
:1032D0005B6A002B08D17B685B68B3F5827F09D0FD
:1032E0007B680022DA6105E07B6800221A617B6856
:1032F00000225A617B6800229A627B6893F8513001
:10330000DBB2002B06D17B68002283F8502078685E
:10331000FEF76AFA7B68022283F851207B681B68FB
:103320001A687B681B6822F040021A607B685B6841
:1033300003F482727B689B6803F404431A437B683E
:10334000DB6803F400631A437B681B6903F0020324
:103350001A437B685B6903F001031A437B689B692E
:1033600003F400731A437B68DB6903F038031A43E4
:103370007B681B6A03F0800342EA03017B689B6A57
:1033800003F400527B681B680A431A607B689B69E0
:103390001B0C03F004017B685B6A03F010027B687E
:1033A0001B680A435A607B681B68DA697B681B6884
:1033B00022F40062DA617B6800225A657B68012290
:1033C00083F85120002318460837BD4680BD80B5DC
:1033D00088B000AFF860B9603B601346FB80002303
:1033E000FB77FB6893F85030012B01D102232DE1CC
:1033F000FB68012283F85020FEF77CFFB861FB8850
:10340000FB82FB6893F85130DBB2012B02D0022320
:10341000FB7716E1BB68002B02D0FB88002B02D1A2
:103420000123FB770DE1FB68032283F85120FB6841
:1034300000225A65FB68BA681A63FB68FA889A86A4
:10344000FB68FA88DA86FB6800229A63FB68002230
:103450009A87FB680022DA87FB6800225A64FB68BF
:1034600000221A64FB689B68B3F5004F0FD1FB681C
:103470001B681A68FB681B6822F040021A60FB6830
:103480001B681A68FB681B6842F480421A60FB687C
:103490001B681B6803F04003402B07D0FB681B68C8
:1034A0001A68FB681B6842F040021A60FB68DB6820
:1034B000B3F5006F4FD1FB685B68002B02D0FB8A2D
:1034C000012B42D1FB681B6B1A88FB681B68DA6012
:1034D000FB681B6B9A1CFB681A63FB68DB8E9BB254
:1034E000013B9AB2FB68DA862FE0FB681B689B6899
:1034F00003F00203022B12D1FB681B6B1A88FB68D6
:103500001B68DA60FB681B6B9A1CFB681A63FB681C
:10351000DB8E9BB2013B9AB2FB68DA8615E0FEF7C0
:10352000E9FE0246BB69D31A3A689A4203D83B685F
:10353000B3F1FF3F02D13B68002B06D10323FB7799
:10354000FB68012283F851207BE0FB68DB8E9BB295
:10355000002BCAD150E0FB685B68002B02D0FB8ACD
:10356000012B44D1FB681A6BFB681B680C33127883
:103570001A70FB681B6B5A1CFB681A63FB68DB8EB6
:103580009BB2013B9AB2FB68DA8630E0FB681B68AD
:103590009B6803F00203022B13D1FB681A6BFB68D4
:1035A0001B680C3312781A70FB681B6B5A1CFB6883
:1035B0001A63FB68DB8E9BB2013B9AB2FB68DA862A
:1035C00015E0FEF797FE0246BB69D31A3A689A42A5
:1035D00003D83B68B3F1FF3F02D13B68002B06D113
:1035E0000323FB77FB68012283F8512029E0FB6865
:1035F000DB8E9BB2002BC9D1BA693968F86800F03C
:10360000C3F90346002B02D0FB6820225A65FB68F1
:103610009B68002B0AD100233B61FB681B68DB68B9
:103620003B61FB681B689B683B613B69FB685B6DAA
:10363000002B02D00123FB7703E0FB68012283F813
:103640005120FB68002283F85020FB7F184620376A
:10365000BD4680BD80B588B000AF78607B681B68D0
:103660005B68FB617B681B689B68BB61BB6903F09F
:103670004003002B0ED1BB6903F00103002B09D0DE
:10368000FB6903F04003002B04D07B681B6C786857
:103690009847CEE0BB6903F00203002B09D0FB6919
:1036A00003F08003002B04D07B685B6C786898473C
:1036B000BFE0BB6903F02003002B0AD1BB6903F014
:1036C0004003002B05D1BB6903F48073002B00F08D
:1036D000B080FB6903F02003002B00F0AA80BB69D7
:1036E00003F04003002B23D07B6893F85130DBB20A
:1036F000032B11D07B685B6D43F004027B685A6535
:1037000000237B617B681B68DB687B617B681B68CF
:103710009B687B617B690BE000233B617B681B68D6
:10372000DB683B617B681B689B683B613B6980E0B1
:10373000BB6903F02003002B14D07B685B6D43F062
:1037400001027B685A650023FB607B681B689B68ED
:10375000FB607B681B681A687B681B6822F040026C
:103760001A60FB68BB6903F48073002B0CD07B6884
:103770005B6D43F008027B685A650023BB607B6881
:103780001B689B68BB60BB687B685B6D002B4FD080
:103790007B681B685A687B681B6822F0E0025A60ED
:1037A0007B68012283F85120FB6903F00203002BA0
:1037B00004D1FB6903F00103002B34D07B681B6844
:1037C0005A687B681B6822F003025A607B68DB6CD6
:1037D000002B11D07B68DB6C174A1A657B68DB6CA9
:1037E0001846FEF738FF0346002B05D07B685B6D5B
:1037F00043F040027B685A657B689B6C002B16D0B7
:103800007B689B6C0C4A1A657B689B6C1846FEF7BC
:1038100022FF0346002B0AD07B685B6D43F0400219
:103820007B685A6503E0786800F008F800E000BFA4
:1038300000BF2037BD4680BD5138000880B483B03A
:1038400000AF786000BF0C37BD465DF8047B704761
:1038500080B584B000AF78607B689B6BFB60FB68D1
:103860000022DA87FB680022DA86F868FFF7E6FFB5
:1038700000BF1037BD4680BD80B588B000AFF8608E
:10388000B9603B601346FB71FEF734FD0246BB6A2C
:103890009B1A3A681344FB61FEF72CFDB861394B63
:1038A0001B685B011B0DFA6902FB03F37B6154E0AB
:1038B0003B68B3F1FF3F50D0FEF71CFD0246BB69E9
:1038C000D31AFA699A4202D9FB69002B3DD1FB68F1
:1038D0001B685A68FB681B6822F0E0025A60FB68AC
:1038E0005B68B3F5827F11D1FB689B68B3F5004F2D
:1038F00004D0FB689B68B3F5806F07D1FB681B6839
:103900001A68FB681B6822F040021A60FB689B6A19
:10391000B3F5005F0FD1FB681B681A68FB681B6872
:1039200022F400521A60FB681B681A68FB681B6867
:1039300042F400521A60FB68012283F85120FB68B0
:10394000002283F85020032317E07B69002B01D16C
:103950000023FB617B69013B7B61FB681B689A6804
:10396000BB681340BA689A420CBF01230023DBB244
:103970001A46FB799A429BD1002318462037BD4650
:1039800080BD00BF0400002080B588B002AFF860A1
:10399000B9607A607B680093BB6801220221F868F5
:1039A000FFF76AFF0346002B07D0FB685B6D43F00F
:1039B0002002FB685A65032332E01B4B1B681B4A3D
:1039C000A2FB03235B0D4FF47A7202FB03F37B61CE
:1039D000FB685B68B3F5827F12D17B680093BB689C
:1039E00000228021F868FFF747FF0346002B16D01E
:1039F000FB685B6D43F02002FB685A6503230FE010
:103A00007B69002B0AD07B69013B7B61FB681B68EB
:103A10009B6803F08003802BF2D000E000BF0023FE
:103A200018461837BD4680BD04000020819F5E16F1
:103A300080B582B000AF78607B68002B01D1012394
:103A400041E07B6893F83D30DBB2002B06D17B6808
:103A5000002283F83C207868FEF7A0F97B680222F8
:103A600083F83D207B681A687B680433194610464A
:103A700000F02CFE7B68012283F846207B6801223F
:103A800083F83E207B68012283F83F207B68012277
:103A900083F840207B68012283F841207B68012263
:103AA00083F842207B68012283F843207B6801224F
:103AB00083F844207B68012283F845207B6801223B
:103AC00083F83D20002318460837BD4680BD80B5E9
:103AD00082B000AF78607B68002B01D1012341E008
:103AE0007B6893F83D30DBB2002B06D17B68002267
:103AF00083F83C20786800F039F87B68022283F86C
:103B00003D207B681A687B6804331946104600F034
:103B1000DDFD7B68012283F846207B68012283F863
:103B20003E207B68012283F83F207B68012283F8D6
:103B300040207B68012283F841207B68012283F8C2
:103B400042207B68012283F843207B68012283F8AE
:103B500044207B68012283F845207B68012283F89A
:103B60003D20002318460837BD4680BD80B483B091
:103B700000AF786000BF0C37BD465DF8047B70472E
:103B800080B584B000AF786039603B68002B09D104
:103B90007B6893F83E30DBB2012B14BF0123002376
:103BA000DBB222E03B68042B09D17B6893F83F30FD
:103BB000DBB2012B14BF01230023DBB215E03B680D
:103BC000082B09D17B6893F84030DBB2012B14BF7E
:103BD00001230023DBB208E07B6893F84130DBB2BD
:103BE000012B14BF01230023DBB2002B01D00123E2
:103BF00068E03B68002B04D17B68022283F83E20FA
:103C000013E03B68042B04D17B68022283F83F2039
:103C10000BE03B68082B04D17B68022283F840202C
:103C200003E07B68022283F841207B681B68012245
:103C30003968184601F01AF97B681B68234A9342D9
:103C400007D17B681B685A6C7B681B6842F4004292
:103C50005A647B681B681D4A934218D07B681B68B6
:103C6000B3F1804F13D07B681B68194A93420ED082
:103C70007B681B68174A934209D07B681B68164A09
:103C8000934204D07B681B68144A934211D17B682D
:103C90001B689B6803F00703FB60FB68062B10D0D2
:103CA0007B681B681A687B681B6842F001021A6017
:103CB00007E07B681B681A687B681B6842F001029A
:103CC0001A60002318461037BD4680BD0000014031
:103CD0000004004000080040000C0040004001408B
:103CE00080B582B000AF78607B68002B01D10123E2
:103CF00041E07B6893F83D30DBB2002B06D17B6856
:103D0000002283F83C20786800F039F87B680222B2
:103D100083F83D207B681A687B6804331946104697
:103D200000F0D4FC7B68012283F846207B680122E6
:103D300083F83E207B68012283F83F207B680122C4
:103D400083F840207B68012283F841207B680122B0
:103D500083F842207B68012283F843207B6801229C
:103D600083F844207B68012283F845207B68012288
:103D700083F83D20002318460837BD4680BD80B437
:103D800083B000AF786000BF0C37BD465DF8047BA0
:103D90007047000080B584B000AF786039600023C0
:103DA000FB733B68002B04D17B6893F83E30DBB299
:103DB00013E03B68042B04D17B6893F83F30DBB2FF
:103DC0000BE03B68082B04D17B6893F84030DBB2F2
:103DD00003E07B6893F84130DBB2BB733B68002B98
:103DE00004D17B6893F84230DBB213E03B68042BCC
:103DF00004D17B6893F84330DBB20BE03B68082BBF
:103E000004D17B6893F84430DBB203E07B6893F81D
:103E10004530DBB27B73BB7B012B02D17B7B012B5B
:103E200001D00123C2E03B68002B04D17B68022251
:103E300083F83E2013E03B68042B04D17B68022208
:103E400083F83F200BE03B68082B04D17B680222FB
:103E500083F8402003E07B68022283F841203B681E
:103E6000002B04D17B68022283F8422013E03B68D8
:103E7000042B04D17B68022283F843200BE03B68CB
:103E8000082B04D17B68022283F8442003E07B687E
:103E9000022283F845203B680C2B41D801A252F83E
:103EA00023F000BFD93E0008213F0008213F000851
:103EB000213F0008EB3E0008213F0008213F000899
:103EC000213F0008FD3E0008213F0008213F000877
:103ED000213F00080F3F00087B681B68DA687B6899
:103EE0001B6842F00202DA601DE07B681B68DA683A
:103EF0007B681B6842F00402DA6014E07B681B6890
:103F0000DA687B681B6842F00802DA600BE07B68C5
:103F10001B68DA687B681B6842F01002DA6002E016
:103F20000123FB7300BFFB7B002B3ED17B681B682A
:103F300001223968184600F099FF7B681B681D4A0A
:103F4000934218D07B681B68B3F1804F13D07B6815
:103F50001B68194A93420ED07B681B68174A93422C
:103F600009D07B681B68164A934204D07B681B68A3
:103F7000144A934211D17B681B689B6803F00703C6
:103F8000BB60BB68062B10D07B681B681A687B6817
:103F90001B6842F001021A6007E07B681B681A6820
:103FA0007B681B6842F001021A60FB7B18461037E1
:103FB000BD4680BD000001400004004000080040F4
:103FC000000C00400040014080B584B000AF786034
:103FD0007B681B68DB68FB607B681B681B69BB60D8
:103FE000BB6803F00203002B20D0FB6803F0020340
:103FF000002B1BD07B681B686FF002021A617B6884
:1040000001221A777B681B689B6903F00303002B6E
:1040100003D07868FCF7E4FF05E0786800F038FB2F
:10402000786800F03FFB7B6800221A77BB6803F0DA
:104030000403002B20D0FB6803F00403002B1BD0EB
:104040007B681B686FF004021A617B6802221A7792
:104050007B681B689B6903F44073002B03D078686E
:10406000FCF7BEFF05E0786800F012FB786800F00E
:1040700019FB7B6800221A77BB6803F00803002B4A
:1040800020D0FB6803F00803002B1BD07B681B6863
:104090006FF008021A617B6804221A777B681B683C
:1040A000DB6903F00303002B03D07868FCF798FF6B
:1040B00005E0786800F0ECFA786800F0F3FA7B68C5
:1040C00000221A77BB6803F01003002B20D0FB6896
:1040D00003F01003002B1BD07B681B686FF01002ED
:1040E0001A617B6808221A777B681B68DB6903F416
:1040F0004073002B03D07868FCF772FF05E0786806
:1041000000F0C6FA786800F0CDFA7B6800221A77D2
:10411000BB6803F00103002B0CD0FB6803F0010324
:10412000002B07D07B681B686FF001021A6178686A
:1041300000F0A4FABB6803F08003002B0CD0FB68EE
:1041400003F08003002B07D07B681B686FF08002B0
:104150001A61786800F028FFBB6803F04003002B69
:104160000CD0FB6803F04003002B07D07B681B6872
:104170006FF040021A61786800F09EFABB6803F0A5
:104180002003002B0CD0FB6803F02003002B07D08A
:104190007B681B686FF020021A61786800F0FAFEF5
:1041A00000BF1037BD4680BD80B586B000AFF86057
:1041B000B9607A600023FB75FB6893F83C30012BF3
:1041C00001D1022388E0FB68012283F83C207B6850
:1041D000002B1BD1FB681868BB681968BB685A685C
:1041E000BB68DB6800F08AFCFB681B689A69FB68A7
:1041F0001B6822F00C029A61FB681B689969BB6816
:104200009A68FB681B680A439A6160E07B68042B2C
:104210001CD1FB681868BB681968BB685A68BB6822
:10422000DB6800F002FDFB681B689A69FB681B688D
:1042300022F440629A61FB681B689969BB689B68BD
:104240001A02FB681B680A439A6140E07B68082BEE
:104250001BD1FB681868BB681968BB685A68BB68E3
:10426000DB6800F04FFDFB681B68DA69FB681B68C0
:1042700022F00C02DA61FB681B68D969BB689A6896
:10428000FB681B680A43DA6121E07B680C2B1CD1B8
:10429000FB681868BB681968BB685A68BB68DB684C
:1042A00000F06CFDFB681B68DA69FB681B6822F490
:1042B0004062DA61FB681B68D969BB689B681A02B7
:1042C000FB681B680A43DA6101E00123FB75FB68A8
:1042D000002283F83C20FB7D18461837BD4680BD80
:1042E00080B586B000AFF860B9607A600023FB75D6
:1042F000FB6893F83C30012B01D10223AEE0FB6850
:10430000012283F83C207B680C2B00F29F8001A2E5
:1043100052F823F0494300084D4400084D4400087A
:104320004D440008894300084D4400084D440008EE
:104330004D440008CB4300084D4400084D4400089C
:104340004D4400080B440008FB681B68B968184618
:1043500000F048FAFB681B689A69FB681B6842F02A
:1043600008029A61FB681B689A69FB681B6822F067
:1043700004029A61FB681B689969BB681A69FB684B
:104380001B680A439A6164E0FB681B68B9681846B9
:1043900000F08EFAFB681B689A69FB681B6842F4A0
:1043A00000629A61FB681B689A69FB681B6822F4CB
:1043B00080629A61FB681B689969BB681B691A0275
:1043C000FB681B680A439A6143E0FB681B68B96895
:1043D000184600F0D9FAFB681B68DA69FB681B68AD
:1043E00042F00802DA61FB681B68DA69FB681B6847
:1043F00022F00402DA61FB681B68D969BB681A699C
:10440000FB681B680A43DA6123E0FB681B68B96834
:10441000184600F023FBFB681B68DA69FB681B6821
:1044200042F40062DA61FB681B68DA69FB681B68AA
:1044300022F48062DA61FB681B68D969BB681B697A
:104440001A02FB681B680A43DA6102E00123FB756C
:1044500000BFFB68002283F83C20FB7D184618371C
:10446000BD4680BD80B584B000AF78603960002360
:10447000FB737B6893F83C30012B01D10223B4E03D
:104480007B68012283F83C207B68022283F83D2070
:104490007B681B689B68BB60BB6823F07703BB60CD
:1044A000BB6823F47F43BB607B681B68BA689A6073
:1044B0003B681B68B3F5005F3ED0B3F5005F00F2C8
:1044C0008780B3F5805F00F08680B3F5805F7FD88A
:1044D000702B1AD0702B7BD8602B50D0602B77D8E4
:1044E000502B3CD0502B73D8402B58D0402B6FD83A
:1044F000302B64D0302B6BD8202B60D0202B67D88A
:10450000002B5CD0102B5AD062E07B6818683B68A7
:1045100099683B685A683B68DB6800F087FC7B68F9
:104520001B689B68BB60BB6843F07703BB607B681C
:104530001B68BA689A604FE07B6818683B689968A6
:104540003B685A683B68DB6800F070FC7B681B685E
:104550009A687B681B6842F480429A603CE07B6802
:1045600018683B6859683B68DB681A4600F02EFB08
:104570007B681B685021184600F03DFC2CE07B68EE
:1045800018683B6859683B68DB681A4600F08AFB8C
:104590007B681B686021184600F02DFC1CE07B68DE
:1045A00018683B6859683B68DB681A4600F00EFBE8
:1045B0007B681B684021184600F01DFC0CE07B68FE
:1045C0001A683B681B681946104600F014FC03E0AB
:1045D0000123FB7300E000BF7B68012283F83D20CC
:1045E0007B68002283F83C20FB7B18461037BD46D1
:1045F00080BD000080B485B000AF786039600023D2
:10460000FB603B680C2B31D801A252F823F000BFAD
:10461000454600086D4600086D4600086D460008D6
:104620004F4600086D4600086D4600086D460008BC
:10463000594600086D4600086D4600086D460008A2
:10464000634600087B681B685B6BFB600FE07B6860
:104650001B689B6BFB600AE07B681B68DB6BFB6085
:1046600005E07B681B681B6CFB6000E000BFFB681B
:1046700018461437BD465DF8047B704780B483B09C
:1046800000AF786000BF0C37BD465DF8047B704713
:1046900080B483B000AF786000BF0C37BD465DF8D2
:1046A000047B704780B483B000AF786000BF0C37E4
:1046B000BD465DF8047B704780B483B000AF78607E
:1046C00000BF0C37BD465DF8047B704780B485B0F1
:1046D00000AF786039607B681B68FB607B683A4A92
:1046E00093420FD07B68B3F1804F0BD07B68374A81
:1046F000934207D07B68364A934203D07B68354AA1
:10470000934208D1FB6823F07003FB603B685B6851
:10471000FA681343FB607B682B4A93421BD07B688B
:10472000B3F1804F17D07B68284A934213D07B683F
:10473000274A93420FD07B68264A93420BD07B686E
:10474000254A934207D07B68244A934203D07B6872
:10475000234A934208D1FB6823F44073FB603B6813
:10476000DB68FA681343FB60FB6823F080023B6858
:104770005B691343FB607B68FA681A603B689A6860
:104780007B68DA623B681A687B689A627B680E4ACB
:10479000934203D13B681A697B681A637B680122E4
:1047A0005A617B681B6903F00103012B05D17B680B
:1047B0001B6923F001027B681A6100BF1437BD46F4
:1047C0005DF8047B704700BF00000140000400401A
:1047D00000080040000C004000400140004401403F
:1047E0000048014080B487B000AF786039607B68D2
:1047F0001B6A7B617B681B6A23F001027B681A627B
:104800007B685B683B617B689B69FB60FB6823F0AE
:104810007003FB60FB6823F00303FB603B681B68CD
:10482000FA681343FB607B6923F002037B613B68FA
:104830009B687A6913437B617B681C4A93420CD165
:104840007B6923F008037B613B68DB687A6913436B
:104850007B617B6923F004037B617B68134A93428D
:1048600011D13B6923F480733B613B6923F40073EE
:104870003B613B685B693A6913433B613B689B69F9
:104880003A6913433B617B683A695A607B68FA680E
:104890009A613B685A687B685A637B687A691A62D6
:1048A00000BF1C37BD465DF8047B70470000014027
:1048B00080B487B000AF786039607B681B6A7B6129
:1048C0007B681B6A23F010027B681A627B685B6856
:1048D0003B617B689B69FB60FB6823F4E043FB6002
:1048E000FB6823F44073FB603B681B681B02FA689B
:1048F0001343FB607B6923F020037B613B689B686B
:104900001B017A6913437B617B681E4A93420DD178
:104910007B6923F080037B613B68DB681B017A695C
:1049200013437B617B6923F040037B617B68154AFD
:10493000934213D13B6923F480633B613B6923F4C9
:1049400000633B613B685B699B003A6913433B61D1
:104950003B689B699B003A6913433B617B683A69FA
:104960005A607B68FA689A613B685A687B689A6308
:104970007B687A691A6200BF1C37BD465DF8047B0C
:10498000704700BF0000014080B487B000AF78607E
:1049900039607B681B6A7B617B681B6A23F48072C9
:1049A0007B681A627B685B683B617B68DB69FB60E4
:1049B000FB6823F07003FB60FB6823F00303FB60DC
:1049C0003B681B68FA681343FB607B6923F4007340
:1049D0007B613B689B681B027A6913437B617B6840
:1049E0001D4A93420DD17B6923F400637B613B68D0
:1049F000DB681B027A6913437B617B6923F4806364
:104A00007B617B68144A934213D13B6923F4805342
:104A10003B613B6923F400533B613B685B691B01CD
:104A20003A6913433B613B689B691B013A69134335
:104A30003B617B683A695A607B68FA68DA613B6877
:104A40005A687B68DA637B687A691A6200BF1C3730
:104A5000BD465DF8047B70470000014080B487B01C
:104A600000AF786039607B681B6A3B617B681B6ABA
:104A700023F480527B681A627B685B687B617B6889
:104A8000DB69FB60FB6823F4E043FB60FB6823F415
:104A90004073FB603B681B681B02FA681343FB60B2
:104AA0003B6923F400533B613B689B681B033A69F5
:104AB00013433B617B68104A934209D17B6923F41D
:104AC00080437B613B685B699B017A6913437B612F
:104AD0007B687A695A607B68FA68DA613B685A6871
:104AE0007B681A647B683A691A6200BF1C37BD464E
:104AF0005DF8047B704700BF0000014080B487B0C0
:104B000000AFF860B9607A603B60FB681B6A3B618C
:104B1000FB681B6A23F00102FB681A62FB689B6951
:104B20007B61FB68244A934213D0FB68B3F1804F4A
:104B30000FD0FB68214A93420BD0FB68204A934276
:104B400007D0FB681F4A934203D0FB681E4A93427A
:104B500001D1012300E00023002B08D07B6923F062
:104B600003037B617A697B6813437B6103E07B69A4
:104B700043F001037B617B6923F0F0037B613B68B9
:104B80001B01DBB27A6913437B613B6923F00A03A3
:104B90003B61BB6803F00A033A6913433B61FB685E
:104BA0007A699A61FB683A691A6200BF1C37BD4690
:104BB0005DF8047B704700BF000001400004004026
:104BC00000080040000C00400040014080B487B065
:104BD00000AFF860B9607A60FB681B6A7B61FB68B4
:104BE0001B6A23F00102FB681A62FB689B693B6148
:104BF0003B6923F0F0033B617B681B013A69134377
:104C00003B617B6923F00A037B617A69BB681343CC
:104C10007B61FB683A699A61FB687A691A6200BF36
:104C20001C37BD465DF8047B704780B487B000AF89
:104C3000F860B9607A603B60FB681B6A7B61FB6867
:104C40001B6A23F01002FB681A62FB689B693B61D8
:104C50003B6923F440733B617B681B023A69134351
:104C60003B613B6923F470433B613B681B039BB290
:104C70003A6913433B617B6923F0A0037B61BB6806
:104C80001B0103F0A0037A6913437B61FB683A6957
:104C90009A61FB687A691A6200BF1C37BD465DF8ED
:104CA000047B704780B487B000AFF860B9607A6069
:104CB000FB681B6A7B61FB681B6A23F01002FB68C0
:104CC0001A62FB689B693B613B6923F470433B615B
:104CD0007B681B033A6913433B617B6923F0A003A4
:104CE0007B61BB681B017A6913437B61FB683A698E
:104CF0009A61FB687A691A6200BF1C37BD465DF88D
:104D0000047B704780B487B000AFF860B9607A6008
:104D10003B60FB681B6A7B61FB681B6A23F4807243
:104D2000FB681A62FB68DB693B613B6923F00303A4
:104D30003B613A697B6813433B613B6923F0F003B5
:104D40003B613B681B01DBB23A6913433B617B6902
:104D500023F420637B61BB681B0203F420637A6940
:104D600013437B61FB683A69DA61FB687A691A620E
:104D700000BF1C37BD465DF8047B704780B487B028
:104D800000AFF860B9607A603B60FB681B6A7B61CA
:104D9000FB681B6A23F48052FB681A62FB68DB69BC
:104DA0003B613B6923F440733B617B681B023A69BA
:104DB00013433B613B6923F470433B613B681B0336
:104DC0009BB23A6913433B617B6923F420437B61C7
:104DD000BB681B0303F420437A6913437B61FB68C0
:104DE0003A69DA61FB687A691A6200BF1C37BD460E
:104DF0005DF8047B704780B485B000AF786039609F
:104E00007B689B68FB60FB6823F07003FB603A687B
:104E1000FB68134343F00703FB607B68FA689A6002
:104E200000BF1437BD465DF8047B704780B487B07F
:104E300000AFF860B9607A603B60FB689B687B619B
:104E40007B6923F47F437B613B681A027B681A43CA
:104E5000BB6813437A6913437B61FB687A699A6084
:104E600000BF1C37BD465DF8047B704780B487B037
:104E700000AFF860B9607A60BB6803F01F030122DD
:104E800002FA03F37B61FB681A6A7B69DB431A4011
:104E9000FB681A62FB681A6ABB6803F01F03796833
:104EA00001FA03F31A43FB681A6200BF1C37BD46C0
:104EB0005DF8047B7047000080B485B000AF786077
:104EC00039607B6893F83C30012B01D1022350E01C
:104ED0007B68012283F83C207B68022283F83D2016
:104EE0007B681B685B68FB607B681B689B68BB60BA
:104EF000FB6823F07003FB603B681B68FA68134390
:104F0000FB607B681B68FA685A607B681B681C4AF8
:104F1000934218D07B681B68B3F1804F13D07B6835
:104F20001B68184A93420ED07B681B68164A93424E
:104F300009D07B681B68154A934204D07B681B68C4
:104F4000134A93420CD1BB6823F08003BB603B68DB
:104F50005B68BA681343BB607B681B68BA689A6079
:104F60007B68012283F83D207B68002283F83C2087
:104F7000002318461437BD465DF8047B704700BF18
:104F8000000001400004004000080040000C004008
:104F90000040014080B483B000AF786000BF0C37A0
:104FA000BD465DF8047B704780B483B000AF786085
:104FB00000BF0C37BD465DF8047B704780B582B0FA
:104FC00000AF78607B68002B01D1012342E07B6851
:104FD00093F84130DBB2002B06D17B68002283F8C6
:104FE00040207868FDF70CF87B68242283F8412084
:104FF0007B681B68DA687B681B6822F40052DA6001
:10500000786800F0BDFD7B681B681A697B681B68C7
:1050100022F490421A617B681B685A697B681B689E
:1050200022F02A025A617B681B68DA687B681B6879
:1050300042F40052DA607B6800225A647B682022C6
:1050400083F841207B68202283F842207B6800227D
:105050005A63002318460837BD4680BD80B58AB024
:1050600002AFF860B9603B601346FB8000237B61B0
:10507000FB6893F84130DBB2202B75D1BB68002B65
:1050800002D0FB88002B01D101236EE0FB680022D7
:105090005A64FB68212283F84120FDF72BF97861DF
:1050A000FB68FA889A84FB68FA88DA84FB689B6854
:1050B000B3F5805F08D1FB681B69002B04D1002386
:1050C000FB61BB68BB6103E0BB68FB610023BB61A4
:1050D0002EE03B6800937B6900228021F86800F095
:1050E0001FFB0346002B05D0FB68202283F84120DC
:1050F00003233AE0FB69002B0BD1BB691B881A46DE
:10510000FB681B68C2F308025A60BB690233BB61CB
:1051100007E0FB691A78FB681B685A60FB6901337A
:10512000FB61FB68DB8C9BB2013B9AB2FB68DA84C3
:10513000FB68DB8C9BB2002BCBD13B6800937B6977
:1051400000224021F86800F0EBFA0346002B05D05E
:10515000FB68202283F84120032306E0FB6820221D
:1051600083F84120002300E0022318462037BD4683
:1051700080BD80B584B000AFF860B9601346FB8095
:10518000FB6893F84230DBB2202B12D1BB68002BB6
:1051900002D0FB88002B01D101230BE0FB68002229
:1051A0001A63FB881A46B968F86800F012FB0346D8
:1051B00000E0022318461037BD4680BD80B5BAB066
:1051C00000AF78607B681B681B68C7F8E4307B68B9
:1051D0001B68DB68C7F8E0307B681B685B69C7F851
:1051E000DC300023C7F8D8300023C7F8D430D7F814
:1051F000E43003F00F03C7F8D830D7F8D830002BCD
:105200000FD1D7F8E43003F02003002B09D0D7F8F2
:10521000E03003F02003002B03D0786800F0F2FBAD
:105220005BE2D7F8D830002B00F0DE80D7F8DC3016
:1052300003F00103002B06D1D7F8E03003F490739C
:10524000002B00F0D180D7F8E43003F00103002BED
:105250000BD0D7F8E03003F48073002B05D07B68C7
:105260005B6C43F001027B685A64D7F8E43003F0CA
:105270000403002B0BD0D7F8DC3003F00103002B24
:1052800005D07B685B6C43F002027B685A64D7F8F8
:10529000E43003F00203002B0BD0D7F8DC3003F02E
:1052A0000103002B05D07B685B6C43F004027B6834
:1052B0005A64D7F8E43003F00803002B11D0D7F874
:1052C000E03003F02003002B05D1D7F8DC3003F0E9
:1052D0000103002B05D07B685B6C43F008027B6800
:1052E0005A647B685B6C002B00F0F281D7F8E430E5
:1052F00003F02003002B08D0D7F8E03003F02003A0
:10530000002B02D0786800F07DFB7B681B685B692E
:1053100003F04003402B0CBF01230023DBB2C7F88E
:10532000D4307B685B6C03F00803002B03D1D7F803
:10533000D430002B4FD0786800F085FA7B681B686A
:105340005B6903F04003402B41D17B681B68143339
:10535000C7F89C30D7F89C3053E8003FC7F8983026
:10536000D7F8983023F04003C7F8D0307B681B682B
:105370001433D7F8D020C7F8A820C7F8A430D7F83E
:10538000A410D7F8A82041E80023C7F8A030D7F828
:10539000A030002BD9D17B68DB6B002B13D07B684E
:1053A000DB6B7E4A1A657B68DB6B1846FDF753F9A9
:1053B0000346002B16D07B68DB6B1B6D7A68D26BC3
:1053C000104698470EE0786800F094F90AE0786893
:1053D00000F090F906E0786800F08CF97B68002214
:1053E0005A6475E100BF73E17B681B6B012B40F0D1
:1053F0004F81D7F8E43003F01003002B00F0488110
:10540000D7F8E03003F01003002B00F041810023B7
:10541000BB607B681B681B68BB607B681B685B6844
:10542000BB60BB687B681B685B6903F04003402B73
:1054300040F0B6807B68DB6B1B685B68A7F8BE300A
:10544000B7F8BE30002B00F045817B689B8DB7F824
:10545000BE209A4280F03E817B68B7F8BE20DA8594
:105460007B68DB6BDB69B3F5807F00F088807B684D
:105470001B680C33C7F88830D7F8883053E8003FF2
:10548000C7F88430D7F8843023F48073C7F8B83075
:105490007B681B680C33D7F8B820C7F89420C7F88E
:1054A0009030D7F89010D7F8942041E80023C7F83F
:1054B0008C30D7F88C30002BD9D17B681B68143323
:1054C0007B677B6F53E8003F3B673B6F23F0010333
:1054D000C7F8B4307B681B681433D7F8B420C7F81A
:1054E0008020FB67F96FD7F8802041E80023BB6775
:1054F000BB6F002BE1D17B681B6814333B663B6EAE
:1055000053E8003FFB65FB6D23F04003C7F8B03064
:105510007B681B681433D7F8B020FA66BB66B96E97
:10552000FA6E41E800237B667B6E002BE3D17B683B
:10553000202283F842207B6800221A637B681B6864
:105540000C33FB64FB6C53E8003FBB64BB6C23F083
:105550001003C7F8AC307B681B680C33D7F8AC205D
:10556000BA657B65796DBA6D41E800233B653B6D9B
:10557000002BE3D17B68DB6B1846FCF7FCFF7B68F4
:1055800002225A637B689A8D7B68DB8D9BB2D31AAB
:105590009BB21946786800F0B7F89BE00D590008F7
:1055A0007B689A8D7B68DB8D9BB2D31AA7F8CE30CF
:1055B0007B68DB8D9BB2002B00F08E80B7F8CE307D
:1055C000002B00F089807B681B680C33BB63BB6BCE
:1055D00053E8003F7B637B6B23F49073C7F8C830BC
:1055E0007B681B680C33D7F8C8207A643B64396C3D
:1055F0007A6C41E80023FB63FB6B002BE3D17B68F3
:105600001B6814337B627B6A53E8003F3B623B6A52
:1056100023F00103C7F8C4307B681B681433D7F844
:10562000C4203A63FB62F96A3A6B41E80023BB622B
:10563000BB6A002BE3D17B68202283F842207B6881
:1056400000221A637B681B680C333B613B6953E89B
:10565000003FFB60FB6823F01003C7F8C0307B6895
:105660001B680C33D7F8C020FA61BB61B969FA69CD
:1056700041E800237B617B69002BE3D17B68022238
:105680005A63B7F8CE301946786800F03DF823E049
:10569000D7F8E43003F08003002B09D0D7F8E030CE
:1056A00003F08003002B03D0786800F043F914E086
:1056B000D7F8E43003F04003002B0ED0D7F8E030E9
:1056C00003F04003002B08D0786800F083F904E071
:1056D00000BF02E000BF00E000BFE837BD4680BD6C
:1056E00080B483B000AF786000BF0C37BD465DF872
:1056F000047B704780B483B000AF786000BF0C3784
:10570000BD465DF8047B704780B483B000AF78601D
:105710000B467B8000BF0C37BD465DF8047B7047AD
:1057200080B586B000AFF860B9603B601346FB718E
:105730003BE03B6AB3F1FF3F37D0FCF7DBFD0246AD
:105740003B68D31A3A6A9A4202D33B6A002B01D1D2
:1057500003233AE0FB681B68DB6803F00403002BBB
:1057600023D0BB68802B20D0BB68402B1DD0FB68AA
:105770001B681B6803F00803082B16D100237B610C
:10578000FB681B681B687B61FB681B685B687B614F
:105790007B69F86800F057F8FB6808225A64FB68D8
:1057A000002283F8402001230FE0FB681B681A6881
:1057B000BB681340BA689A420CBF01230023DBB2D6
:1057C0001A46FB799A42B4D0002318461837BD46D2
:1057D00080BD80B485B000AFF860B9601346FB802F
:1057E000FB68BA689A62FB68FA889A85FB68FA884F
:1057F000DA85FB6800225A64FB68222283F8422083
:10580000FB681B69002B07D0FB681B68DA68FB6824
:105810001B6842F48072DA60FB681B685A69FB6897
:105820001B6842F001025A61FB681B68DA68FB687A
:105830001B6842F02002DA60002318461437BD4688
:105840005DF8047B704780B495B000AF78607B68EA
:105850001B680C337B637B6B53E8003F3B633B6B04
:1058600023F49073FB647B681B680C33FA6C3A6416
:10587000FB63F96B3A6C41E80023BB63BB6B002B05
:10588000E5D17B681B6814333B623B6A53E8003FF9
:10589000FB61FB6923F00103BB647B681B68143365
:1058A000BA6CFA62BB62B96AFA6A41E800237B62A9
:1058B0007B6A002BE5D17B681B6B012B19D17B68C0
:1058C0001B680C33FB60FB6853E8003FBB60BB68A0
:1058D00023F010037B647B681B680C337A6CBA611D
:1058E0007B617969BA6941E800233B613B69002B20
:1058F000E5D17B68202283F842207B6800221A636E
:1059000000BF5437BD465DF8047B704780B584B056
:1059100000AF78607B689B6BFB60FB680022DA85D8
:10592000FB680022DA84F868FFF7E4FE00BF103756
:10593000BD4680BD80B485B000AF78607B6893F8C9
:105940004130DBB2212B3ED17B689B68B3F5805F91
:1059500014D17B681B69002B10D17B681B6AFB602C
:10596000FB681B881A467B681B68C2F308025A60F2
:105970007B681B6A9A1C7B681A6208E07B681B6A5A
:10598000591C7A6811621A787B681B685A607B68B8
:10599000DB8C9BB2013B9BB27A681946D184002B09
:1059A0000FD17B681B68DA687B681B6822F0800275
:1059B000DA607B681B68DA687B681B6842F040022B
:1059C000DA60002300E0022318461437BD465DF874
:1059D000047B704780B582B000AF78607B681B683D
:1059E000DA687B681B6822F04002DA607B6820225C
:1059F00083F841207868FFF773FE002318460837C4
:105A0000BD4680BD80B58CB000AF78607B6893F8F0
:105A10004230DBB2222B40F0AE807B689B68B3F54E
:105A2000805F17D17B681B69002B13D10023FB62B9
:105A30007B689B6ABB627B681B685B689BB2C3F335
:105A400008039AB2BB6A1A807B689B6A9A1C7B68BF
:105A50009A6226E07B689B6AFB620023BB627B68DC
:105A60009B68B3F5805F07D07B689B68002B0AD1E9
:105A70007B681B69002B06D17B681B685B68DAB208
:105A8000FB6A1A7008E07B681B685B68DBB203F096
:105A90007F03DAB2FB6A1A707B689B6A5A1C7B68C8
:105AA0009A627B68DB8D9BB2013B9BB27A68194698
:105AB000D185002B5DD17B681B68DA687B681B6829
:105AC00022F02002DA607B681B68DA687B681B685A
:105AD00022F48072DA607B681B685A697B681B68F5
