:020000040800F2
:1000000000000120A119000839140008411400085B
:100010004914000851140008591400080000000099
:100020000000000000000000000000006114000853
:100030006F140008000000007D1400088B140008F5
:10004000F1190008F1190008F1190008F119000868
:10005000F1190008F1190008F1190008F119000858
:10006000F1190008F1190008F1190008F119000848
:10007000F1190008F1190008F1190008F119000838
:10008000F1190008F1190008F1190008000000003A
:10009000000000000000000000000000F11900084E
:1000A00099140008AD140008C1140008F1190008E3
:1000B000F1190008F1190008F1190008F1190008F8
:1000C000F1190008F1190008F1190008D514000809
:1000D000F1190008F1190008F119000800000000EA
:1000E000F1190008F1190008F119000800000000DA
:1000F000000000000000000000000000F1190008EE
:1001000000000000F1190008F1190008F1190008B9
:1001100000000000000000000000000000000000DF
:10012000F1190008F1190008F1190008F119000887
:10013000F1190008000000000000000000000000AD
:10014000000000000000000000000000F11900089D
:10015000F1190008F1190008F1190008F119000857
:10016000F1190008F119000800000000000000006B
:10017000000000000000000000000000000000007F
:1001800000000000F119000800000000000000005D
:04019000F119000859
:1001A00010B5054C237833B9044B13B10448AFF3B1
:1001B00000800123237010BD3802002000000000E1
:1001C0009878000808B5034B1BB103490348AFF307
:1001D000008008BD000000003C0200209878000864
:1001E00001F0FF01102A2BDB10F0070F08D010F8E8
:1001F000013B013A8B422DD010F0070F42B3F6D1EC
:10020000F0B441EA012141EA014122F007047FF004
:1002100000070023F0E80256083C85EA010586EA5B
:10022000010685FA47F5A3FA87F586FA47F6A5FA97
:1002300087F68EB9EED1F0BC01F0FF0102F00702A3
:1002400032B110F8013B013A83EA010313B1F8D14E
:100250000020704701387047002D06BF354603382F
:10026000073815F0010F07D1013015F4807F02BF68
:10027000013015F4C03F0130F0BC0138704700BFB9
:10028000034613F8012B002AFBD1181A01387047D6
:1002900081F0004102E000BF83F0004330B54FEA37
:1002A00041044FEA430594EA050F08BF90EA020FA4
:1002B0001FBF54EA000C55EA020C7FEA645C7FEA37
:1002C000655C00F0E2804FEA5454D4EB5555B8BF5A
:1002D0006D420CDD2C4480EA020281EA030382EACB
:1002E000000083EA010180EA020281EA0303362D5D
:1002F00088BF30BD11F0004F4FEA01314FF4801C30
:100300004CEA113102D0404261EB410113F0004F41
:100310004FEA03334CEA133302D0524263EB4303F8
:1003200094EA050F00F0A780A4F10104D5F1200E96
:100330000DDB02FA0EFC22FA05F2801841F10001F1
:1003400003FA0EF2801843FA05F359410EE0A5F1C5
:1003500020050EF1200E012A03FA0EFC28BF4CF0F6
:10036000020C43FA05F3C01851EBE37101F00045AC
:1003700007D54FF0000EDCF1000C7EEB00006EEBB9
:100380000101B1F5801F1BD3B1F5001F0CD3490843
:100390005FEA30004FEA3C0C04F101044FEA44529A
:1003A00012F5800F80F09A80BCF1004F08BF5FEA21
:1003B000500C50F1000041EB045141EA050130BD01
:1003C0005FEA4C0C404141EB0101013C28BFB1F513
:1003D000801FE9D291F0000F04BF01460020B1FA5E
:1003E00081F308BF2033A3F10B03B3F120020CDA31
:1003F0000C3208DD02F1140CC2F10C0201FA0CF00F
:1004000021FA02F10CE002F11402D8BFC2F1200C73
:1004100001FA02F120FA0CFCDCBF41EA0C01904029
:10042000E41AA2BF01EB0451294330BD6FEA040472
:100430001F3C1CDA0C340EDC04F11404C4F120025D
:1004400020FA04F001FA02F340EA030021FA04F36F
:1004500045EA030130BDC4F10C04C4F1200220FAC6
:1004600002F001FA04F340EA0300294630BD21FA04
:1004700004F0294630BD94F0000F83F4801306BFCA
:1004800081F480110134013D4EE77FEA645C18BFBE
:100490007FEA655C29D094EA050F08BF90EA020F55
:1004A00005D054EA000C04BF1946104630BD91EA4D
:1004B000030F1EBF0021002030BD5FEA545C05D150
:1004C0004000494128BF41F0004130BD14F580048F
:1004D0003CBF01F5801130BD01F0004545F0FE4103
:1004E00041F470014FF0000030BD7FEA645C1ABF38
:1004F000194610467FEA655C1CBF0B46024650EA6F
:10050000013406BF52EA033591EA030F41F400219A
:1005100030BD00BF90F0000F04BF0021704730B520
:100520004FF4806404F132044FF000054FF00001F5
:1005300050E700BF90F0000F04BF0021704730B5B6
:100540004FF4806404F1320410F0004548BF40428B
:100550004FF000013EE700BF42004FEAE2014FEAE0
:1005600031014FEA02701FBF12F07F4393F07F4FBB
:1005700081F06051704732F07F4208BF704793F0BE
:100580007F4F04BF41F40021704730B54FF46074D1
:1005900001F0004521F000411CE700BF50EA0102D4
:1005A00008BF704730B54FF000050AE050EA01027D
:1005B00008BF704730B511F0004502D5404261EBED
:1005C00041014FF4806404F132045FEA915C3FF42E
:1005D000D8AE4FF003025FEADC0C18BF03325FEACB
:1005E000DC0C18BF033202EBDC02C2F1200300FA7C
:1005F00003FC20FA02F001FA03FE40EA0E0021FAA1
:1006000002F11444BDE600BF70B54FF0FF0C4CF48E
:10061000E06C1CEA11541DBF1CEA135594EA0C0F40
:1006200095EA0C0F00F0DEF82C4481EA030621EA7B
:100630004C5123EA4C5350EA013518BF52EA0335B6
:1006400041F4801143F4801338D0A0FB02CE4FF068
:100650000005E1FB02E506F00042E0FB03E54FF098
:100660000006E1FB03569CF0000F18BF4EF0010E90
:10067000A4F1FF04B6F5007F64F5407404D25FEA8C
:100680004E0E6D4146EB060642EAC62141EA55513F
:100690004FEAC52040EA5E504FEACE2EB4F1FD0C81
:1006A00088BFBCF5E06F1ED8BEF1004F08BF5FEAFF
:1006B000500E50F1000041EB045170BD06F00046B1
:1006C00046EA010140EA020081EA0301B4EB5C045E
:1006D000C2BFD4EB0C0541EA045170BD41F4801156
:1006E0004FF0000E013C00F3AB8014F1360FDEBF7B
:1006F000002001F0004170BDC4F10004203C35DA57
:100700000C341BDC04F11404C4F1200500FA05F3D9
:1007100020FA04F001FA05F240EA020001F000427A
:1007200021F0004110EBD37021FA04F642EB0601F0
:100730005EEA430E08BF20EAD37070BDC4F10C041A
:10074000C4F1200500FA04F320FA05F001FA04F2DE
:1007500040EA020001F0004110EBD37041F10001CA
:100760005EEA430E08BF20EAD37070BDC4F12005D5
:1007700000FA05F24EEA020E20FA04F301FA05F23D
:1007800043EA020321FA04F001F0004121FA04F2E5
:1007900020EA020000EBD3705EEA430E08BF20EAB5
:1007A000D37070BD94F0000F0FD101F000464000EF
:1007B00041EB010111F4801F08BF013CF7D041EA71
:1007C000060195F0000F18BF704703F00046520075
:1007D00043EB030313F4801F08BF013DF7D043EA46
:1007E0000603704794EA0C0F0CEA135518BF95EAFC
:1007F0000C0F0CD050EA410618BF52EA4306D1D183
:1008000081EA030101F000414FF0000070BD50EAA1
:10081000410606BF1046194652EA430619D094EA2B
:100820000C0F02D150EA013613D195EA0C0F05D115
:1008300052EA03361CBF104619460AD181EA030169
:1008400001F0004141F0FE4141F470014FF0000021
:1008500070BD41F0FE4141F4780170BD70B54FF0BC
:10086000FF0C4CF4E06C1CEA11541DBF1CEA13553C
:1008700094EA0C0F95EA0C0F00F0A7F8A4EB05041E
:1008800081EA030E52EA03354FEA013100F0888015
:100890004FEA03334FF0805545EA131343EA1263DE
:1008A0004FEA022245EA111545EA10654FEA002693
:1008B0000EF000419D4208BF964244F1FD0404F54C
:1008C000407402D25B084FEA3202B61A65EB0305A8
:1008D0005B084FEA32024FF480104FF4002CB6EB65
:1008E000020E75EB030E22BFB61A754640EA0C00E5
:1008F0005B084FEA3202B6EB020E75EB030E22BF25
:10090000B61A754640EA5C005B084FEA3202B6EB65
:10091000020E75EB030E22BFB61A754640EA9C0024
:100920005B084FEA3202B6EB020E75EB030E22BFF4
:10093000B61A754640EADC0055EA060E18D04FEAB2
:10094000051545EA16754FEA06164FEAC30343EA52
:1009500052734FEAC2025FEA1C1CC0D111F4801F1F
:100960000BD141EA00014FF000004FF0004CB6E718
:1009700011F4801F04BF01430020B4F1FD0C88BFB7
:10098000BCF5E06F3FF6AFAEB5EB030C04BFB6EBC2
:10099000020C5FEA500C50F1000041EB045170BDB5
:1009A0000EF0004E4EEA113114EB5C04C2BFD4EBE2
:1009B0000C0541EA045170BD41F480114FF0000E66
:1009C000013C90E645EA060E8DE60CEA135594EAE2
:1009D0000C0F08BF95EA0C0F3FF43BAF94EA0C0FE5
:1009E0000AD150EA01347FF434AF95EA0C0F7FF45A
:1009F00025AF104619462CE795EA0C0F06D152EAAE
:100A000003353FF4FDAE1046194622E750EA410691
:100A100018BF52EA43067FF4C5AE50EA41047FF4A2
:100A20000DAF52EA43057FF4EBAE12E74FF0FF3C07
:100A300006E000BF4FF0010C02E000BF4FF0010CD8
:100A40004DF804CD4FEA410C7FEA6C5C4FEA430C51
:100A500018BF7FEA6C5C1BD001B050EA410C0CBFA0
:100A600052EA430C91EA030F02BF90EA020F002002
:100A7000704710F1000F91EA030F58BF994208BF69
:100A800090422CBFD8176FEAE37040F00100704726
:100A90004FEA410C7FEA6C5C02D150EA013C07D17D
:100AA0004FEA430C7FEA6C5CD6D152EA033CD3D0C8
:100AB0005DF8040B704700BF8446104662468C46C2
:100AC0001946634600E000BF01B5FFF7B7FF0028F5
:100AD00048BF10F1000F01BD4DF808EDFFF7F4FF1E
:100AE0000CBF012000205DF808FB00BF4DF808EDA9
:100AF000FFF7EAFF34BF012000205DF808FB00BFCC
:100B00004DF808EDFFF7E0FF94BF012000205DF8ED
:100B100008FB00BF4DF808EDFFF7CEFF94BF0120A2
:100B200000205DF808FB00BF4DF808EDFFF7C4FF9B
:100B300034BF012000205DF808FB00BF4FEA410CE4
:100B40007FEA6C5C02D150EA013C0AD14FEA430CC7
:100B50007FEA6C5C02D152EA033C02D14FF0000004
:100B600070474FF0010070474FEA410212F5001242
:100B700015D211D56FF47873B3EB625212D94FEAE4
:100B8000C12343F0004343EA505311F0004F23FACE
:100B900002F018BF404270474FF00000704750EA23
:100BA000013005D111F0004008BF6FF000407047E0
:100BB0004FF00000704700BF53B94AB9002908BF81
:100BC00000281CBF4FF0FF314FF0FF3000F06AB932
:100BD000ADF1080C6DE904CE00F006F8DDF804E094
:100BE000DDE9022304B070472DE9F047089D0C466B
:100BF000002B4ED194468C458646B2FA82F262D9D9
:100C00004AB1C2F12003914020FA03F30CFA02FC2E
:100C1000194300FA02FE4FEA1C471FFA8CF6B1FB9B
:100C2000F7F44FEA1E4307FB141143EA014304FBA8
:100C300006F199420AD91CEB030304F1FF3080F05E
:100C40001281994240F20F81023C6344591A1FFA03
:100C50008EF3B1FBF7F007FB101143EA014300FBF1
:100C600006F69E420AD91CEB030300F1FF3180F027
:100C7000FC809E4240F2F980634402389B1B40EAAC
:100C8000044000211DB1D3400022C5E90032BDE877
:100C9000F0878B4205D90DB1C5E900010021084656
:100CA000F5E7B3FA83F1002946D1A34202D390427B
:100CB000C0F0F080861A64EB03030120002DE6D01B
:100CC000C5E90063E3E7002A40F09080A1EB0C0443
:100CD0004FEA1C481FFA8CF70121B4FBF8F64FEAE3
:100CE0001E4308FB164443EA044307FB06F0984200
:100CF00008D91CEB030306F1FF3402D2984200F23C
:100D0000CD8026461C1A1FFA8EF3B4FBF8F008FBC0
:100D1000104443EA044300FB07F79F4208D91CEB49
:100D2000030300F1FF3402D29F4200F2B08020465C
:100D3000DB1B40EA0640A5E7C1F120068B4022FA02
:100D400006F71F4320FA06FC04FA01F343EA0C03FA
:100D5000F44000FA01F8380C4FEA1349B4FBF0FEF6
:100D60001FFA87FC00FB1E4449EA04440EFB0CF901
:100D7000A14502FA01F20AD93C190EF1FF3A80F0BE
:100D80008480A14540F28180AEF1020E3C44A4EB88
:100D900009041FFA83F9B4FBF0F300FB134449EA9A
:100DA000044403FB0CFCA44507D93C1903F1FF30B4
:100DB00067D2A44565D9023B3C4443EA0E40A0FB00
:100DC0000293A4EB0C049C42CE469C4651D34ED0D9
:100DD00055B1B8EB0E0364EB0C0404FA06F6CB40F5
:100DE0001E43CC40C5E90064002150E7C2F1200356
:100DF00020FA03F10CFA02FC24FA03F394400C43AA
:100E00004FEA1C4800FA02FE1FFA8CF7B3FBF8F019
:100E100008FB1031230C43EA014300FB07F1994220
:100E200008D91CEB030300F1FF362CD299422AD9D2
:100E3000023863445B1AA4B2B3FBF8F108FB113328
:100E400044EA034401FB07F3A34208D91CEB040462
:100E500001F1FF3613D2A34211D902396444E41AD6
:100E600041EA004139E70446F0E6084606E7C8458E
:100E7000AED2B9EB020E63EB070C0138A8E731469E
:100E8000EDE7034699E73046D4E7D6467FE763446B
:100E900002384DE70646234608460FE7023E634404
:100EA00030E700BF704700BF80B588B000AF07F1E2
:100EB0000C0300221A605A609A60DA601A610023FB
:100EC000BB603F4B1B6B3E4A43F0040313633C4B38
:100ED0001B6B03F00403BB60BB6800237B60384BD3
:100EE0001B6B374A43F001031363354B1B6B03F055
:100EF00001037B607B6800233B60314B1B6B304AF6
:100F000043F0020313632E4B1B6B03F002033B60A1
:100F10003B68002242F23F312A4801F0D1F800221A
:100F20000E21294801F0CCF800220F21274801F0BA
:100F3000C7F842F23F33FB6001233B6100237B6132
:100F40000023BB6107F10C0319461E4800F01CFF8B
:100F50000123FB6003233B6100237B6107F10C034A
:100F60001946194800F010FF0E23FB6001233B6176
:100F700000237B610023BB6107F10C031946124873
:100F800000F002FF0F23FB6001233B6100237B6124
:100F90000023BB6107F10C0319460C4800F0F4FE76
:100FA000F023FB6000233B6102237B6107F10C030C
:100FB0001946064800F0E8FE00BF2037BD4680BD58
:100FC00000380240000802400000024000040240D5
:100FD00080B582B000AF786001220449044801F076
:100FE00085FD00BF0837BD4680BD00BF5C02002004
:100FF0006002002080B582B000AF00F0FBFC00234F
:10100000FB7100F009F9FFF74FFF00F045FB00F01E
:1010100055FC00F067F901226F49704801F066FD48
:101020006F4803F097FD03461A466E4B1A706E4BDD
:10103000022201216A4803F047FE6C4B0222022182
:10104000674803F041FE00220221694801F038F8A8
:10105000684803F057FF684A6849694803F004FD8F
:1010600003461A465F4B1A70634B1B78002B12D055
:10107000FB790C33DAB2634B0221594803F024FEAA
:10108000FB795D4A1178604AD154FB790133FB71D9
:10109000594B00221A705C4BDB78002B00F09680D5
:1010A000594B1B78312B58D1574B5B78312B54D18E
:1010B000554B9B78312B50D1534BDB78312B4CD196
:1010C0000121474803F096FD504B0122012144487D
:1010D00003F0FAFD142000F0FFFC01220221444835
:1010E00000F0EEFF434803F0C3FE434A434944483F
:1010F00003F0BAFC03461A463A4B1A703E4B1B7873
:10110000412B25D10121364803F074FD404B0222CA
:101110000121334803F0D8FD1E2000F0DDFC002241
:101120000221334800F0CCFF324803F0EBFE00BF51
:101130001DE004212E4800F0DCFF08212C4800F0BF
:10114000D8FF02212A4800F0D4FF3C2000F0C4FC64
:10115000214B1B78272BECD8C7E70121204803F04F
:1011600049FD2C4B022201211D4803F0ADFD002357
:10117000BB7106E0BB79244A0021D154BB7901330D
:10118000BB71BB79032BF5D90121154803F032FD62
:10119000154B02220121124803F096FD134B022247
:1011A00002210F4803F090FD0023FB710EE00421A3
:1011B0000F4800F09EFF08210D4800F09AFF022121
:1011C0000B4800F096FF3C2000F086FC024B1B7899
:1011D000272BECD837E700BF5C020020600200201C
:1011E0004000002000000020B0780008B878000817
:1011F0000000024068000020540200202800002067
:1012000010000020C478000858020020C8780008A8
:10121000DC780008E878000880B594B000AF07F1EA
:10122000200330220021184604F013FC07F10C03C0
:1012300000221A605A609A60DA601A610023BB606B
:10124000234B1B6C224A43F080531364204B1B6CCE
:1012500003F08053BB60BB6800237B601D4B1B68A1
:1012600023F440431B4A43F400431360194B1B68AB
:1012700003F440437B607B6802233B620123FB62F3
:1012800010233B630023BB6307F12003184600F0E3
:101290004BFF0346002B01D000F01EF80F23FB602C
:1012A00000233B6100237B614FF48053BB6100232B
:1012B000FB6107F10C030021184601F0ADF903466C
:1012C000002B01D000F008F800BF5037BD4680BDAC
:1012D000003802400070004080B400AF72B600BF1A
:1012E00000BFFDE780B500AF154B164A1A60144BDE
:1012F00000225A60124B00229A60114B0022DA60E1
:101300000F4B00221A610E4B00225A610C4B002237
:101310009A610B4B00221A62094B00225A62084B59
:1013200000229A62064B0A22DA62054801F054FB59
:101330000346002B01D0FFF7CFFF00BF80BD00BFE9
:10134000600200200030014080B58AB000AF7860B4
:1013500007F1140300221A605A609A60DA601A6179
:101360007B681B681D4A934233D100233B611C4BB1
:101370005B6C1B4A43F480535364194B5B6C03F45E
:1013800080533B613B690023FB60154B1B6B144A88
:1013900043F001031363124B1B6B03F00103FB606B
:1013A000FB68F0237B610223BB610023FB61032305
:1013B0003B6205237B6207F114031946094800F0DC
:1013C000E3FC00220021232000F085FC232000F014
:1013D0009EFC00BF2837BD4680BD00BF00300140E5
:1013E000003802400000024080B483B000AF002308
:1013F0007B60104B5B6C0F4A43F4804353640D4B8E
:101400005B6C03F480437B607B6800233B60094B8B
:101410001B6C084A43F080531364064B1B6C03F0AB
:1014200080533B603B6800BF0C37BD465DF8047BD2
:10143000704700BF0038024080B400AF00BFFDE736
:1014400080B400AF00BFFDE780B400AF00BFFDE790
:1014500080B400AF00BFFDE780B400AF00BFFDE780
:1014600080B400AF00BFBD465DF8047B704780B418
:1014700000AF00BFBD465DF8047B704780B400AF8D
:1014800000BFBD465DF8047B704780B500AF00F03B
:1014900003FB00BF80BD000080B500AF024802F032
:1014A000C7F900BF80BD00BFBC02002080B500AFFF
:1014B000024802F0BDF900BF80BD00BFBC020020A1
:1014C00080B500AF024802F0B3F900BF80BD00BF95
:1014D000BC02002080B500AF024801F035FC00BF1F
:1014E00080BD00BF6002002080B400AF0123184619
:1014F000BD465DF8047B704780B582B000AF786070
:10150000396004F0F9FA034616221A604FF0FF33EF
:1015100018460837BD4680BD80B582B000AF786000
:101520004FF0FF317868FFF7E7FF00BFFDE780B5B8
:1015300086B000AFF860B9607A6000237B610AE092
:10154000AFF300800146BB685A1CBA60CAB21A7079
:101550007B6901337B617A697B689A42F0DB7B6847
:1015600018461837BD4680BD80B586B000AFF8601C
:10157000B9607A6000237B6109E0BB685A1CBA60DD
:101580001B781846AFF300807B6901337B617A6971
:101590007B689A42F1DB7B6818461837BD4680BDF0
:1015A00080B483B000AF78604FF0FF3318460C373B
:1015B000BD465DF8047B704780B483B000AF7860AF
:1015C00039603B684FF400525A60002318460C37CC
:1015D000BD465DF8047B704780B483B000AF78608F
:1015E000012318460C37BD465DF8047B704780B474
:1015F00085B000AFF860B9607A60002318461437F0
:10160000BD465DF8047B704780B586B000AF78605A
:10161000144A154BD31A7B617B693B61134B1B68E2
:10162000002B02D1114B124A1A60104B1A687B68CA
:1016300013443A699A4207D204F05EFA03460C2238
:101640001A604FF0FF3309E0084B1B68FB60074B43
:101650001A687B681344054A1360FB6818461837FC
:10166000BD4680BD0000012000040000B80200203B
:10167000A004002080B400AF064BD3F88830054AA0
:1016800043F47003C2F8883000BFBD465DF8047BA8
:10169000704700BF00ED00E080B596B000AF07F1E5
:1016A000480300221A605A609A60DA6007F140032A
:1016B00000221A605A6007F1240300221A605A605F
:1016C0009A60DA601A615A619A613B1D20220021FA
:1016D000184604F0BEF93E4B3E4A1A603C4B9F222E
:1016E0005A603B4B00229A60394B40F2CF72DA606D
:1016F000374B00221A61364B00225A61344B0022CC
:101700009A61334801F03BFF0346002B01D0FFF7FD
:10171000E3FD4FF48053BB6407F1480319462C489E
:1017200002F038FA0346002B01D0FFF7D5FD284818
:1017300001F074FF0346002B01D0FFF7CDFD00231D
:101740003B6400237B6407F140031946204802F004
:10175000F3FD0346002B01D0FFF7BEFD60237B6243
:101760000023BB620023FB6200233B6300237B63F7
:101770000023BB630023FB6307F124030022194607
:10178000134802F045F90346002B01D0FFF7A4FDF2
:1017900000237B600023BB600023FB6000233B61D0
:1017A00000237B614FF40053BB6100233B623B1D70
:1017B0001946074802F02EFE0346002B01D0FFF722
:1017C0008BFD034800F040F800BF5837BD4680BD90
:1017D000BC0200200000014080B584B000AF7860FA
:1017E0007B681B68164A934225D10023FB60154B8A
:1017F0005B6C144A43F001035364124B5B6C03F0BF
:101800000103FB60FB6800220021182000F063FA4E
:10181000182000F07CFA00220021192000F05BFA69
:10182000192000F074FA002200211A2000F053FA67
:101830001A2000F06CFA00BF1037BD4680BD00BF13
:10184000000001400038024080B588B000AF7860E9
:1018500007F10C0300221A605A609A60DA601A617C
:101860007B681B68124A93421ED10023BB60114B58
:101870001B6B104A43F0010313630E4B1B6B03F009
:101880000103BB60BB684FF48073FB6002233B61C4
:1018900000237B610023BB610123FB6107F10C0383
:1018A0001946054800F070FA00BF2037BD4680BDDC
:1018B00000000140003802400000024080B500AF47
:1018C000114B124A1A60104B4FF416525A600E4BCD
:1018D00000229A600C4B0022DA600B4B00221A6146
:1018E000094B0C225A61084B00229A61064B0022D8
:1018F000DA61054802F0F4FD0346002B01D0FFF742
:10190000EBFC00BF80BD00BF0403002000100140BD
:1019100080B58AB000AF786007F1140300221A6026
:101920005A609A60DA601A617B681B68194A9342B0
:101930002CD100233B61184B5B6C174A43F010031A
:101940005364154B5B6C03F010033B613B69002350
:10195000FB60114B1B6B104A43F0010313630E4BEA
:101960001B6B03F00103FB60FB684FF4C0637B61FA
:101970000223BB610023FB6103233B6207237B62DD
:1019800007F114031946054800F0FEF900BF283797
:10199000BD4680BD001001400038024000000240FA
:1019A000DFF834D0FFF766FE0C480D490D4A0023DE
:1019B00002E0D458C4500433C4188C42F9D30A4A04
:1019C0000A4C002301E013600432A242FBD304F06E
:1019D00099F8FFF70FFB704700000120000000207E
:1019E00038020020A07C0008380200209C0400205F
:1019F000FEE7000080B500AF0E4B1B680D4A43F4B4
:101A0000007313600B4B1B680A4A43F48063136036
:101A1000084B1B68074A43F480731360032000F0EF
:101A20004FF90F2000F008F8FFF7DEFC00231846FE
:101A300080BD00BF003C024080B582B000AF78603E
:101A4000124B1A68124B1B7819464FF47A73B3FB8A
:101A5000F1F3B2FBF3F3184600F067F90346002BED
:101A600001D001230EE07B680F2B0AD80022796891
:101A70004FF0FF3000F02FF9064A7B681360002317
:101A800000E0012318460837BD4680BD0400002051
:101A90000C0000200800002080B400AF064B1B782B
:101AA0001A46064B1B681344044A136000BFBD4628
:101AB0005DF8047B704700BF0C0000204C03002041
:101AC00080B400AF034B1B681846BD465DF8047B2D
:101AD000704700BF4C03002080B584B000AF786031
:101AE000FFF7EEFFB8607B68FB60FB68B3F1FF3F78
:101AF00005D00A4B1B781A46FB681344FB6000BFF5
:101B0000FFF7DEFF0246BB68D31AFA689A42F7D89D
:101B100000BF00BF1037BD4680BD00BF0C000020D5
:101B200080B485B000AF78607B6803F00703FB608A
:101B30000C4BDB68BB60BA684FF6FF031340BB6019
:101B4000FB681A02BB68134343F0BF6343F40033DE
:101B5000BB60044ABB68D36000BF1437BD465DF864
:101B6000047B704700ED00E080B400AF044BDB68FD
:101B70001B0A03F007031846BD465DF8047B704757
:101B800000ED00E080B483B000AF0346FB7197F92D
:101B90000730002B0BDBFB7903F01F02074997F995
:101BA00007305B09012000FA02F241F8232000BF50
:101BB0000C37BD465DF8047B704700BF00E100E0D4
:101BC00080B483B000AF03463960FB7197F90730EA
:101BD000002B0ADB3B68DAB20C4997F90730120197
:101BE000D2B20B4483F800230AE03B68DAB208491A
:101BF000FB7903F00F03043B1201D2B20B441A76B7
:101C000000BF0C37BD465DF8047B704700E100E083
:101C100000ED00E080B489B000AFF860B9607A6090
:101C2000FB6803F00703FB61FB69C3F10703042BA7
:101C300028BF0423BB61FB690433062B02D9FB696F
:101C4000033B00E000237B614FF0FF32BB6902FAE7
:101C500003F3DA43BB681A407B699A404FF0FF31C7
:101C60007B6901FA03F3D9437B680B4013431846A1
:101C70002437BD465DF8047B7047000080B582B014
:101C800000AF78607B68013BB3F1807F01D3012313
:101C90000FE00A4A7B68013B53600F214FF0FF3091
:101CA000FFF78EFF054B00229A60044B07221A6053
:101CB000002318460837BD4680BD00BF10E000E095
:101CC00080B582B000AF78607868FFF729FF00BF69
:101CD0000837BD4680BD80B586B000AF0346B96009
:101CE0007A60FB7300237B61FFF73EFF78617A68BF
:101CF000B9687869FFF78EFF024697F90F301146F1
:101D00001846FFF75DFF00BF1837BD4680BD80B5A0
:101D100082B000AF0346FB7197F907301846FFF712
:101D200031FF00BF0837BD4680BD80B582B000AF2F
:101D300078607868FFF7A2FF034618460837BD466B
:101D400080BD80B483B000AF78607B6893F8353095
:101D5000DBB2022B04D07B6880225A6501230CE0A1
:101D60007B68052283F835207B681B681A687B68CE
:101D70001B6822F001021A60002318460C37BD468A
:101D80005DF8047B7047000080B489B000AF7860D4
:101D9000396000237B6100233B610023BB6100238A
:101DA000FB6159E10122FB6902FA03F37B613B68A5
:101DB0001B687A6913403B613A697B699A4240F03B
:101DC00048813B685B6803F00303012B05D03B6847
:101DD0005B6803F00303022B30D17B689B68BB6117
:101DE000FB695B00032202FA03F3DB43BA69134089
:101DF000BB613B68DA68FB695B0002FA03F3BA690E
:101E00001343BB617B68BA699A607B685B68BB619E
:101E10000122FB6902FA03F3DB43BA691340BB6199
:101E20003B685B681B0903F00102FB6902FA03F3DC
:101E3000BA691343BB617B68BA695A603B685B68E7
:101E400003F00303032B17D07B68DB68BB61FB69DE
:101E50005B00032202FA03F3DB43BA691340BB6160
:101E60003B689A68FB695B0002FA03F3BA691343A3
:101E7000BB617B68BA69DA603B685B6803F00303A7
:101E8000022B23D1FB69DA087B68083253F8223031
:101E9000BB61FB6903F007039B000F2202FA03F307
:101EA000DB43BA691340BB613B681A69FB6903F005
:101EB00007039B0002FA03F3BA691343BB61FB6992
:101EC000DA087B680832B96943F822107B681B681E
:101ED000BB61FB695B00032202FA03F3DB43BA69CF
:101EE0001340BB613B685B6803F00302FB695B0066
:101EF00002FA03F3BA691343BB617B68BA691A60DB
:101F00003B685B6803F44033002B00F0A2800023A1
:101F1000FB60574B5B6C564A43F480435364544B0D
:101F20005B6C03F48043FB60FB68524AFB699B08CF
:101F3000023352F82330BB61FB6903F003039B00BB
:101F40000F2202FA03F3DB43BA691340BB617B68DB
:101F5000494A934219D07B68484A934213D07B6820
:101F6000474A93420DD07B68464A934207D07B682C
:101F7000454A934201D1042308E0072306E00323E6
:101F800004E0022302E0012300E00023FA6902F0EA
:101F9000030292009340BA691343BB613549FB6960
:101FA0009B080233BA6941F82320384B9B68BB6118
:101FB0003B69DB43BA691340BB613B685B6803F470
:101FC0008013002B03D0BA693B691343BB612F4ACE
:101FD000BB6993602D4BDB68BB613B69DB43BA692E
:101FE0001340BB613B685B6803F40013002B03D014
:101FF000BA693B691343BB61244ABB69D360234B75
:102000005B68BB613B69DB43BA691340BB613B68FA
:102010005B6803F40033002B03D0BA693B691343B8
:10202000BB611A4ABB695360184B1B68BB613B69B3
:10203000DB43BA691340BB613B685B6803F48033E0
:10204000002B03D0BA693B691343BB610F4ABB69DC
:102050001360FB690133FB61FB690F2B7FF6A2AEB6
:1020600000BF00BF2437BD465DF8047B704700BF4A
:1020700000380240003801400000024000040240E5
:1020800000080240000C024000100240003C0140E9
:1020900080B485B000AF78600B467B807B681A699E
:1020A0007B881340002B02D00123FB7301E0002347
:1020B000FB73FB7B18461437BD465DF8047B704705
:1020C00080B483B000AF78600B467B8013467B7092
:1020D0007B78002B03D07A887B689A6103E07B8849
:1020E0001A047B689A6100BF0C37BD465DF8047B1B
:1020F000704780B485B000AF78600B467B807B680A
:102100005B69FB607A88FB6813401A04FB68D9435B
:102110007B880B401A437B689A6100BF1437BD4629
:102120005DF8047B7047000080B586B000AF786032
:102130007B68002B01D1012367E27B681B6803F0F9
:102140000103002B75D0884B9B6803F00C03042B14
:102150000CD0854B9B6803F00C03082B12D1824BEB
:102160005B6803F48003B3F5800F0BD17E4B1B68D3
:1021700003F40033002B5BD07B685B68002B57D1E6
:10218000012342E27B685B68B3F5803F06D1764B62
:102190001B68754A43F4803313601DE07B685B68FD
:1021A000B3F5A02F0CD1704B1B686F4A43F480230A
:1021B00013606D4B1B686C4A43F4803313600BE073
:1021C000694B1B68684A23F480331360664B1B68B5
:1021D000654A23F4802313607B685B68002B13D06F
:1021E000FFF76EFC386108E0FFF76AFC02463B69C6
:1021F000D31A642B01D9032307E25B4B1B6803F45A
:102200000033002BF0D014E0FFF75AFC386108E0EF
:10221000FFF756FC02463B69D31A642B01D903230E
:10222000F3E1514B1B6803F40033002BF0D100E0C5
:1022300000BF7B681B6803F00203002B63D04A4B8E
:102240009B6803F00C03002B0BD0474B9B6803F0FB
:102250000C03082B1CD1444B5B6803F48003002B58
:1022600016D1414B1B6803F00203002B05D07B689D
:10227000DB68012B01D00123C7E13B4B1B6823F036
:10228000F8027B681B69DB00374913430B603AE0B7
:102290007B68DB68002B20D0344B01221A60FFF7EB
:1022A0000FFC386108E0FFF70BFC02463B69D31ACC
:1022B000022B01D90323A8E12B4B1B6803F0020377
:1022C000002BF0D0284B1B6823F0F8027B681B69B9
:1022D000DB00254913430B6015E0244B00221A60F4
:1022E000FFF7EEFB386108E0FFF7EAFB02463B69C7
:1022F000D31A022B01D9032387E11B4B1B6803F080
:102300000203002BF0D17B681B6803F00803002B4D
:1023100036D07B685B69002B16D0154B01221A6002
:10232000FFF7CEFB386108E0FFF7CAFB02463B69C6
:10233000D31A022B01D9032367E10B4B5B6F03F028
:102340000203002BF0D01BE0094B00221A60FFF7BC
:10235000B7FB38610EE0FFF7B3FB02463B69D31AC7
:10236000022B07D9032350E1003802400000474206
:10237000800E4742884B5B6F03F00203002BEAD1CB
:102380007B681B6803F00403002B00F09780002398
:10239000FB75814B1B6C03F08053002B0FD1002386
:1023A000BB607D4B1B6C7C4A43F0805313647A4BBB
:1023B0001B6C03F08053BB60BB680123FB75774B3C
:1023C0001B6803F48073002B18D1744B1B68734A8D
:1023D00043F480731360FFF773FB386108E0FFF785
:1023E0006FFB02463B69D31A022B01D903230CE190
:1023F0006A4B1B6803F48073002BF0D07B689B68EA
:10240000012B06D1644B1B6F634A43F00103136732
:102410001CE07B689B68052B0CD15F4B1B6F5E4AF1
:1024200043F0040313675C4B1B6F5B4A43F00103EB
:1024300013670BE0584B1B6F574A23F001031367D8
:10244000554B1B6F544A23F0040313677B689B684A
:10245000002B15D0FFF734FB38610AE0FFF730FBA3
:1024600002463B69D31A41F28832934201D90323D1
:10247000CBE0494B1B6F03F00203002BEED014E0BE
:10248000FFF71EFB38610AE0FFF71AFB02463B69C3
:10249000D31A41F28832934201D90323B5E03E4B6F
:1024A0001B6F03F00203002BEED1FB7D012B05D146
:1024B000394B1B6C384A23F0805313647B689B694B
:1024C000002B00F0A180344B9B6803F00C03082B19
:1024D0005CD07B689B69022B41D1314B00221A6092
:1024E000FFF7EEFA386108E0FFF7EAFA02463B69C7
:1024F000D31A022B01D9032387E0274B1B6803F073
:102500000073002BF0D17B68DA697B681B6A1A4381
:102510007B685B6A9B011A437B689B6A5B08013B93
:102520001B041A437B68DB6A1B061B4913434B6081
:102530001B4B01221A60FFF7C3FA386108E0FFF76E
:10254000BFFA02463B69D31A022B01D903235CE090
:10255000114B1B6803F00073002BF0D054E0104BBC
:1025600000221A60FFF7ACFA386108E0FFF7A8FA1A
:1025700002463B69D31A022B01D9032345E0064BDF
:102580001B6803F00073002BF0D13DE07B689B6972
:10259000012B07D1012338E00038024000700040D1
:1025A000600047421B4B5B68FB607B689B69012BAB
:1025B00028D0FB6803F480027B68DB699A4221D152
:1025C000FB6803F03F027B681B6A9A421AD1FA68E3
:1025D00047F6C07313407A68526A9201934211D150
:1025E000FB6803F440327B689B6A5B08013B1B0479
:1025F0009A4207D1FB6803F070627B68DB6A1B06B6
:102600009A4201D0012300E0002318461837BD4646
:1026100080BD00BF0038024080B584B000AF786054
:1026200039607B68002B01D10123CCE0684B1B682B
:1026300003F007033A689A420CD9654B3A68D2B264
:102640001A70634B1B6803F007033A689A4201D083
:102650000123B8E07B681B6803F00203002B20D045
:102660007B681B6803F00403002B05D0594B9B6863
:10267000584A43F4E05393607B681B6803F00803F7
:10268000002B05D0534B9B68524A43F46043936040
:10269000504B9B6823F0F0027B689B684D491343C5
:1026A0008B607B681B6803F00103002B44D07B68C0
:1026B0005B68012B07D1474B1B6803F40033002BE9
:1026C00019D101237FE07B685B68022B03D07B6814
:1026D0005B68032B07D13F4B1B6803F00073002B93
:1026E00009D101236FE03B4B1B6803F00203002B71
:1026F00001D1012367E0374B9B6823F003027B681D
:102700005B68344913438B60FFF7DAF9F8600AE03D
:10271000FFF7D6F90246FB68D31A41F2883293429A
:1027200001D903234FE02B4B9B6803F00C027B681D
:102730005B689B009A42EBD1254B1B6803F00703B3
:102740003A689A420CD2224B3A68D2B21A70204BA5
:102750001B6803F007033A689A4201D0012332E074
:102760007B681B6803F00403002B08D0194B9B689F
:1027700023F4E0527B68DB68164913438B607B6867
:102780001B6803F00803002B09D0124B9B6823F44D
:1027900060427B681B69DB000E4913438B6000F0CD
:1027A00021F802460B4B9B681B0903F00F030A49F3
:1027B000CB5C22FA03F3094A1360094B1B681846E5
:1027C000FFF73AF9002318461037BD4680BD00BF19
:1027D000003C024000380240F87800080400002065
:1027E000080000202DE9B04F90B000AF00237B63BC
:1027F0000023FB6300233B630023BB63594B9B68AF
:1028000003F00C03082B0DD0082B00F2A180002B45
:1028100002D0042B03D09BE0534BBB639BE0534B94
:10282000BB6398E04F4B5B6803F03F037B634D4B0A
:102830005B6803F48003002B28D04A4B5B689B093C
:1028400000223B627A623B6AC3F308000021474BD7
:1028500003FB01F2002300FB03F31344434AA0FBF4
:102860000212FA620A46BA62FA6A1344FB627B6B8E
:102870000022BB61FA61D7E90623D7E90A01FEF716
:102880009BF902460B461346FB6353E0354B5B68EE
:102890009B0900223B617A613B69C3F3080A4FF050
:1028A000000B52465B464FF000004FF0000159010B
:1028B00041EAD261500102460B46B2EB0A0863EBD3
:1028C0000B094FF000024FF000034FEA891343EA6F
:1028D00098634FEA8812B2EB080463EB09054FF0E6
:1028E00000024FF00003EB0043EA5473E200144689
:1028F0001D4614EB0A033B6045EB0B037B604FF076
:1029000000024FF00003D7E9004529468B0221461B
:1029100043EA915321468A02104619467B6B0022F6
:10292000BB60FA60D7E90223FEF746F902460B4680
:102930001346FB630B4B5B681B0C03F00303013373
:102940005B003B63FA6B3B6BB2FBF3F3BB6302E0F0
:10295000054BBB6300BFBB6B18464037BD46BDE8A7
:10296000B08F00BF003802400024F40040787D01A1
:1029700080B400AF034B1B681846BD465DF8047B6E
:10298000704700BF0400002080B500AFFFF7F0FFE4
:102990000246054B9B689B0A03F007030349CB5C87
:1029A00022FA03F3184680BD003802400879000877
:1029B00080B500AFFFF7DCFF0246054B9B685B0B61
:1029C00003F007030349CB5C22FA03F3184680BDEA
:1029D000003802400879000880B582B000AF786006
:1029E0007B68002B01D101237BE07B685B6A002BB5
:1029F00008D17B685B68B3F5827F09D07B680022D1
:102A0000DA6105E07B6800221A617B6800225A6166
:102A10007B6800229A627B6893F85130DBB2002B0E
:102A200006D17B68002283F850207868FEF78CFC82
:102A30007B68022283F851207B681B681A687B68D8
:102A40001B6822F040021A607B685B6803F48272A4
:102A50007B689B6803F404431A437B68DB6803F4D8
:102A600000631A437B681B6903F002031A437B6807
:102A70005B6903F001031A437B689B6903F40073ED
:102A80001A437B68DB6903F038031A437B681B6ACF
:102A900003F0800342EA03017B689B6A03F400525F
:102AA0007B681B680A431A607B689B691B0C03F0F8
:102AB00004017B685B6A03F010027B681B680A43B1
:102AC0005A607B681B68DA697B681B6822F40062C5
:102AD000DA617B6800225A657B68012283F8512005
:102AE000002318460837BD4680BD000080B586B07B
:102AF00000AFF860B9601346FB800023FB75FB68EC
:102B000093F85130DBB2012B02D00223FB757FE03A
:102B1000FB689B68002B10D1FB685B68B3F5827F74
:102B20000BD1FB68042283F85120FB88BA68B9688E
:102B3000F86800F077F803466BE0BB68002B02D022
:102B4000FB88002B02D10123FB7561E0FB6893F841
:102B50005030012B01D102235BE0FB68012283F896
:102B60005020FB68042283F85120FB6800225A653C
:102B7000FB68BA689A63FB68FA889A87FB68FA88E8
:102B8000DA87FB6800221A63FB6800229A86FB68DA
:102B90000022DA86FB6800225A64FB68DB68002B9F
:102BA00003D0FB681D4A1A6402E0FB681C4A1A64E1
:102BB000FB689B68B3F5004F0FD1FB681B681A6870
:102BC000FB681B6822F040021A60FB681B681A68E9
:102BD000FB681B6822F480421A60FB681B681B6854
:102BE00003F04003402B07D0FB681B681A68FB68A2
:102BF0001B6842F040021A60FB68002283F85020F4
:102C0000FB681B685A68FB681B6842F060025A60E8
:102C1000FB7D18461837BD4680BD00BF4D3100080A
:102C20000331000880B487B000AFF860B9607A6003
:102C30007B800023FB75FB6893F85130BB75FB6804
:102C40005B683B61BB7D012B0DD03B69B3F5827F97
:102C500006D1FB689B68002B02D1BB7D042B02D000
:102C60000223FB7561E0BB68002B05D07B68002B5D
:102C700002D07B88002B02D10123FB7555E0FB6855
:102C800093F85030012B01D102234FE0FB68012261
:102C900083F85020FB6893F85130DBB2042B03D04B
:102CA000FB68052283F85120FB6800225A65FB6807
:102CB000BA681A63FB687A889A86FB687A88DA862B
:102CC000FB687A689A63FB687A889A87FB687A88D7
:102CD000DA87FB68DB68002B06D0FB68164A1A64AB
:102CE000FB68164A5A6405E0FB68154A1A64FB68DB
:102CF000144A5A64FB681B681B6803F04003402BAE
:102D000007D0FB681B681A68FB681B6842F040022A
:102D10001A60FB68002283F85020FB681B685A6821
:102D2000FB681B6842F0E0025A60FB7D18461C37C6
:102D3000BD465DF8047B704745300008A5300008AB
:102D4000812F0008E52F000880B588B000AF7860BB
:102D50007B681B685B68FB617B681B689B68BB6169
:102D6000BB6903F04003002B0ED1BB6903F00103E4
:102D7000002B09D0FB6903F04003002B04D07B68D3
:102D80001B6C78689847CEE0BB6903F00203002B08
:102D900009D0FB6903F08003002B04D07B685B6CD7
:102DA00078689847BFE0BB6903F02003002B0AD185
:102DB000BB6903F04003002B05D1BB6903F48073AA
:102DC000002B00F0B080FB6903F02003002B00F023
:102DD000AA80BB6903F04003002B23D07B6893F8E3
:102DE0005130DBB2032B11D07B685B6D43F00402E2
:102DF0007B685A6500237B617B681B68DB687B61AD
:102E00007B681B689B687B617B690BE000233B61EF
:102E10007B681B68DB683B617B681B689B683B6168
:102E20003B6980E0BB6903F02003002B14D07B6872
:102E30005B6D43F001027B685A650023FB607B6891
:102E40001B689B68FB607B681B681A687B681B6853
:102E500022F040021A60FB68BB6903F48073002B08
:102E60000CD07B685B6D43F008027B685A650023D9
:102E7000BB607B681B689B68BB60BB687B685B6DE5
:102E8000002B4FD07B681B685A687B681B6822F058
:102E9000E0025A607B68012283F85120FB6903F04D
:102EA0000203002B04D1FB6903F00103002B34D093
:102EB0007B681B685A687B681B6822F003025A60B3
:102EC0007B68DB6C002B11D07B68DB6C174A1A65C2
:102ED0007B68DB6C1846FEF734FF0346002B05D0F9
:102EE0007B685B6D43F040027B685A657B689B6C36
:102EF000002B16D07B689B6C0C4A1A657B689B6C18
:102F00001846FEF71EFF0346002B0AD07B685B6D58
:102F100043F040027B685A6503E0786800F012F8DD
:102F200000E000BF00BF2037BD4680BD592F00081C
:102F300080B483B000AF786000BF0C37BD465DF849
:102F4000047B704780B483B000AF786000BF0C375B
:102F5000BD465DF8047B704780B584B000AF7860F3
:102F60007B689B6BFB60FB680022DA87FB680022B2
:102F7000DA86F868FFF7E6FF00BF1037BD4680BD70
:102F800080B582B000AF78607B681B6803F10C02EB
:102F90007B689B6B1278D2B21A707B689B6B5A1C51
:102FA0007B689A637B68DB8F9BB2013B9AB27B683C
:102FB000DA877B68DB8F9BB2002B0FD17B681B68A5
:102FC0005A687B681B6822F060025A607B68DB8E5F
:102FD0009BB2002B02D1786800F01EFA00BF0837C0
:102FE000BD4680BD80B582B000AF78607B681A6B4B
:102FF0007B681B680C3312781A707B681B6B5A1C39
:103000007B681A637B68DB8E9BB2013B9AB27B685C
:10301000DA867B68DB8E9BB2002B0FD17B681B6846
:103020005A687B681B6822F080025A607B68DB8FDD
:103030009BB2002B02D1786800F0EEF900BF083790
:10304000BD4680BD80B582B000AF78607B681B68EC
:10305000DA687B689B6B92B21A807B689B6B9A1CC8
:103060007B689A637B68DB8F9BB2013B9AB27B687B
:10307000DA877B68DB8F9BB2002B0FD17B681B68E4
:103080005A687B681B6822F040025A607B68DB8EBE
:103090009BB2002B02D1786800F0BEF900BF083760
:1030A000BD4680BD80B582B000AF78607B681B6B89
:1030B0001A887B681B68DA607B681B6B9A1C7B68CC
:1030C0001A637B68DB8E9BB2013B9AB27B68DA861F
:1030D0007B68DB8E9BB2002B0FD17B681B685A6824
:1030E0007B681B6822F080025A607B68DB8F9BB292
:1030F000002B02D1786800F08FF900BF0837BD4679
:1031000080BD80B582B000AF78607B681B6803F13A
:103110000C027B689B6B1278D2B21A707B689B6B37
:103120005A1C7B689A637B68DB8F9BB2013B9AB227
:103130007B68DA877B68DB8F9BB2002B02D17868D3
:1031400000F0DEF900BF0837BD4680BD80B582B013
:1031500000AF78607B681B68DA687B689B6B92B213
:103160001A807B689B6B9A1C7B689A637B68DB8FF9
:103170009BB2013B9AB27B68DA877B68DB8F9BB29C
:10318000002B02D1786800F0BBF900BF0837BD46BC
:1031900080BD000080B588B000AFF860B9603B60CA
:1031A0001346FB71FEF78CFC0246BB6A9B1A3A6819
:1031B0001344FB61FEF784FCB861394B1B685B016B
:1031C0001B0DFA6902FB03F37B6154E03B68B3F12A
:1031D000FF3F50D0FEF774FC0246BB69D31AFA6970
:1031E0009A4202D9FB69002B3DD1FB681B685A68E3
:1031F000FB681B6822F0E0025A60FB685B68B3F56D
:10320000827F11D1FB689B68B3F5004F04D0FB6847
:103210009B68B3F5806F07D1FB681B681A68FB6871
:103220001B6822F040021A60FB689B6AB3F5005FDE
:103230000FD1FB681B681A68FB681B6822F40052F8
:103240001A60FB681B681A68FB681B6842F400522E
:103250001A60FB68012283F85120FB68002283F882
:103260005020032317E07B69002B01D10023FB6171
:103270007B69013B7B61FB681B689A68BB681340F4
:10328000BA689A420CBF01230023DBB21A46FB79CD
:103290009A429BD1002318462037BD4680BD00BF0F
:1032A0000400002080B586B002AFF860B9607A6093
:1032B000FB685B68B3F5827F11D1FB689B68B3F54F
:1032C000004F04D0FB689B68B3F5806F07D1FB68A3
:1032D0001B681A68FB681B6822F040021A60FB68D2
:1032E0005B68B3F5827F2AD1FB689B68B3F5806F7A
:1032F00012D07B680093BB6800228021F868FFF73A
:1033000049FF0346002B2DD0FB685B6D43F0200284
:10331000FB685A65032326E07B680093BB680022A4
:103320000121F868FFF736FF0346002B1AD0FB682F
:103330005B6D43F02002FB685A65032313E07B6852
:103340000093BB6800220121F868FFF723FF0346C2
:10335000002B07D0FB685B6D43F02002FB685A65C9
:10336000032300E0002318461037BD4680BD00004F
:1033700080B588B002AFF860B9607A607B6800936E
:10338000BB6801220221F868FFF704FF0346002B07
:1033900007D0FB685B6D43F02002FB685A6503238E
:1033A00032E01B4B1B681B4AA2FB03235B0D4FF44F
:1033B0007A7202FB03F37B61FB685B68B3F5827F83
:1033C00012D17B680093BB6800228021F868FFF768
:1033D000E1FE0346002B16D0FB685B6D43F0200234
:1033E000FB685A6503230FE07B69002B0AD07B69D9
:1033F000013B7B61FB681B689B6803F08003802BAB
:10340000F2D000E000BF002318461837BD4680BD4B
:1034100004000020819F5E1680B586B000AF786002
:10342000354B1B68354AA2FB03235B0A642202FB6F
:1034300003F33B61FEF744FB78617B681B685A68C5
:103440007B681B6822F020025A603B69002B06D182
:103450007B685B6D43F020027B685A6509E03B693D
:10346000013B3B617B681B689B6803F00203002BF8
:10347000EBD07A6964217868FFF77AFF0346002B66
:1034800005D07B685B6D43F020027B685A657B68E2
:103490009B68002B0AD10023FB607B681B68DB68FC
:1034A000FB607B681B689B68FB60FB687B685B6DEF
:1034B000002B15D17B6893F85130DBB2042B07D178
:1034C0007B68012283F851207868FDF781FD0EE0CA
:1034D0007B68012283F851207868FFF729FD06E018
:1034E0007B68012283F851207868FFF72BFD00BF2D
:1034F0001837BD4680BD00BF04000020F1197605D5
:1035000080B584B000AF78607B681B685A687B68C0
:103510001B6822F060025A60FEF7D2FA03461A4690
:1035200064217868FFF7BEFE0346002B05D07B6858
:103530005B6D43F020027B685A657B689B68002BBB
:103540000AD10023FB607B681B68DB68FB607B683B
:103550001B689B68FB60FB687B68012283F8512035
:103560007B685B6D002B03D17868FDF731FD02E0CD
:103570007868FFF7E7FC00BF1037BD4680BD80B517
:1035800082B000AF78607B68002B01D1012341E05D
:103590007B6893F83D30DBB2002B06D17B680022BC
:1035A00083F83C207868FEF717F97B68022283F8DD
:1035B0003D207B681A687B6804331946104600F08A
:1035C000E3FB7B68012283F846207B68012283F8B5
:1035D0003E207B68012283F83F207B68012283F82C
:1035E00040207B68012283F841207B68012283F818
:1035F00042207B68012283F843207B68012283F804
:1036000044207B68012283F845207B68012283F8EF
:103610003D20002318460837BD4680BD80B582B0E6
:1036200000AF78607B68002B01D1012341E07B680B
:1036300093F83D30DBB2002B06D17B68002283F883
:103640003C20786800F039F87B68022283F83D203E
:103650007B681A687B6804331946104600F094FBB7
:103660007B68012283F846207B68012283F83E2094
:103670007B68012283F83F207B68012283F8402089
:103680007B68012283F841207B68012283F8422075
:103690007B68012283F843207B68012283F8442061
:1036A0007B68012283F845207B68012283F83D2056
:1036B000002318460837BD4680BD80B483B000AFF4
:1036C000786000BF0C37BD465DF8047B7047000092
:1036D00080B584B000AF786039603B68002B09D1B9
:1036E0007B6893F83E30DBB2012B14BF012300232B
:1036F000DBB222E03B68042B09D17B6893F83F30B2
:10370000DBB2012B14BF01230023DBB215E03B68C1
:10371000082B09D17B6893F84030DBB2012B14BF32
:1037200001230023DBB208E07B6893F84130DBB271
:10373000012B14BF01230023DBB2002B01D0012396
:1037400068E03B68002B04D17B68022283F83E20AE
:1037500013E03B68042B04D17B68022283F83F20EE
:103760000BE03B68082B04D17B68022283F84020E1
:1037700003E07B68022283F841207B681B680122FA
:103780003968184600F0B2FD7B681B68234A9342F3
:1037900007D17B681B685A6C7B681B6842F4004247
:1037A0005A647B681B681D4A934218D07B681B686B
:1037B000B3F1804F13D07B681B68194A93420ED037
:1037C0007B681B68174A934209D07B681B68164ABE
:1037D000934204D07B681B68144A934211D17B68E2
:1037E0001B689B6803F00703FB60FB68062B10D087
:1037F0007B681B681A687B681B6842F001021A60CC
:1038000007E07B681B681A687B681B6842F001024E
:103810001A60002318461037BD4680BD00000140E5
:103820000004004000080040000C0040004001403F
:1038300080B584B000AF78607B681B68DB68FB6094
:103840007B681B681B69BB60BB6803F00203002B2D
:1038500020D0FB6803F00203002B1BD07B681B68A1
:103860006FF002021A617B6801221A777B681B687D
:103870009B6903F00303002B03D0786800F065FA1E
:1038800005E0786800F057FA786800F068FA7B681D
:1038900000221A77BB6803F00403002B20D0FB68DA
:1038A00003F00403002B1BD07B681B686FF004023D
:1038B0001A617B6802221A777B681B689B6903F494
:1038C0004073002B03D0786800F03FFA05E0786879
:1038D00000F031FA786800F042FA7B6800221A772B
:1038E000BB6803F00803002B20D0FB6803F008033B
:1038F000002B1BD07B681B686FF008021A617B6885
:1039000004221A777B681B68DB6903F00303002B32
:1039100003D0786800F019FA05E0786800F00BFA37
:10392000786800F01CFA7B6800221A77BB6803F005
:103930001003002B20D0FB6803F01003002B1BD0DA
:103940007B681B686FF010021A617B6808221A7787
:103950007B681B68DB6903F44073002B03D0786835
:1039600000F0F3F905E0786800F0E5F9786800F018
:10397000F6F97B6800221A77BB6803F00103002B7D
:103980000CD0FB6803F00103002B07D07B681B6899
:103990006FF001021A61786800F0C3F9BB6803F0A8
:1039A0008003002B0CD0FB6803F08003002B07D0B2
:1039B0007B681B686FF080021A61786800F086FDF2
:1039C000BB6803F04003002B0CD0FB6803F04003FE
:1039D000002B07D07B681B686FF040021A61786883
:1039E00000F0C7F9BB6803F02003002B0CD0FB6884
:1039F00003F02003002B07D07B681B686FF02002C8
:103A00001A61786800F058FD00BF1037BD4680BDD0
:103A100080B586B000AFF860B9607A600023FB75AE
:103A2000FB6893F83C30012B01D10223AEE0FB6828
:103A3000012283F83C207B680C2B00F29F8001A2BE
:103A400052F823F0793A00087D3B00087D3B0008DE
:103A50007D3B0008B93A00087D3B00087D3B00082B
:103A60007D3B0008FB3A00087D3B00087D3B0008D9
:103A70007D3B00083B3B0008FB681B68B9681846A3
:103A800000F00EFAFB681B689A69FB681B6842F03D
:103A900008029A61FB681B689A69FB681B6822F040
:103AA00004029A61FB681B689969BB681A69FB6824
:103AB0001B680A439A6164E0FB681B68B968184692
:103AC00000F054FAFB681B689A69FB681B6842F4B3
:103AD00000629A61FB681B689A69FB681B6822F4A4
:103AE00080629A61FB681B689969BB681B691A024E
:103AF000FB681B680A439A6143E0FB681B68B9686E
:103B0000184600F09FFAFB681B68DA69FB681B68BF
:103B100042F00802DA61FB681B68DA69FB681B681F
:103B200022F00402DA61FB681B68D969BB681A6974
:103B3000FB681B680A43DA6123E0FB681B68B9680D
:103B4000184600F0E9FAFB681B68DA69FB681B6835
:103B500042F40062DA61FB681B68DA69FB681B6883
:103B600022F48062DA61FB681B68D969BB681B6953
:103B70001A02FB681B680A43DA6102E00123FB7545
:103B800000BFFB68002283F83C20FB7D18461837F5
:103B9000BD4680BD80B584B000AF78603960002339
:103BA000FB737B6893F83C30012B01D10223B4E016
:103BB0007B68012283F83C207B68022283F83D2049
:103BC0007B681B689B68BB60BB6823F07703BB60A6
:103BD000BB6823F47F43BB607B681B68BA689A604C
:103BE0003B681B68B3F5005F3ED0B3F5005F00F2A1
:103BF0008780B3F5805F00F08680B3F5805F7FD863
:103C0000702B1AD0702B7BD8602B50D0602B77D8BC
:103C1000502B3CD0502B73D8402B58D0402B6FD812
:103C2000302B64D0302B6BD8202B60D0202B67D862
:103C3000002B5CD0102B5AD062E07B6818683B6880
:103C400099683B685A683B68DB6800F02FFB7B682B
:103C50001B689B68BB60BB6843F07703BB607B68F5
:103C60001B68BA689A604FE07B6818683B6899687F
:103C70003B685A683B68DB6800F018FB7B681B6890
:103C80009A687B681B6842F480429A603CE07B68DB
:103C900018683B6859683B68DB681A4600F08CFA84
:103CA0007B681B685021184600F0E5FA2CE07B6821
:103CB00018683B6859683B68DB681A4600F0ABFA45
:103CC0007B681B686021184600F0D5FA1CE07B6811
:103CD00018683B6859683B68DB681A4600F06CFA64
:103CE0007B681B684021184600F0C5FA0CE07B6831
:103CF0001A683B681B681946104600F0BCFA03E0DE
:103D00000123FB7300E000BF7B68012283F83D20A4
:103D10007B68002283F83C20FB7B18461037BD46A9
:103D200080BD80B483B000AF786000BF0C37BD4663
:103D30005DF8047B704780B483B000AF786000BF4B
:103D40000C37BD465DF8047B704780B483B000AF8C
:103D5000786000BF0C37BD465DF8047B704780B4C7
:103D600083B000AF786000BF0C37BD465DF8047BC0
:103D7000704780B483B000AF786000BF0C37BD4699
:103D80005DF8047B7047000080B485B000AF7860B8
:103D900039607B681B68FB607B683A4A93420FD0AE
:103DA0007B68B3F1804F0BD07B68374A934207D0D2
:103DB0007B68364A934203D07B68354A934208D1E8
:103DC000FB6823F07003FB603B685B68FA68134391
:103DD000FB607B682B4A93421BD07B68B3F1804F1A
:103DE00017D07B68284A934213D07B68274A9342B6
:103DF0000FD07B68264A93420BD07B68254A9342BA
:103E000007D07B68244A934203D07B68234A9342BD
:103E100008D1FB6823F44073FB603B68DB68FA68F9
:103E20001343FB60FB6823F080023B685B6913432C
:103E3000FB607B68FA681A603B689A687B68DA62A4
:103E40003B681A687B689A627B680E4A934203D18A
:103E50003B681A697B681A637B6801225A617B6838
:103E60001B6903F00103012B05D17B681B6923F05B
:103E700001027B681A6100BF1437BD465DF8047B00
:103E8000704700BF000001400004004000080040EF
:103E9000000C004000400140004401400048014047
:103EA00080B487B000AF786039607B681B6A7B6143
:103EB0007B681B6A23F001027B681A627B685B687F
:103EC0003B617B689B69FB60FB6823F07003FB60D0
:103ED000FB6823F00303FB603B681B68FA6813432D
:103EE000FB607B6923F002037B613B689B687A6916
:103EF00013437B617B681C4A93420CD17B6923F09E
:103F000008037B613B68DB687A6913437B617B69EB
:103F100023F004037B617B68134A934211D13B6910
:103F200023F480733B613B6923F400733B613B687E
:103F30005B693A6913433B613B689B693A69134388
:103F40003B617B683A695A607B68FA689A613B68B2
:103F50005A687B685A637B687A691A6200BF1C37AB
:103F6000BD465DF8047B70470000014080B487B017
:103F700000AF786039607B681B6A7B617B681B6A75
:103F800023F010027B681A627B685B683B617B6888
:103F90009B69FB60FB6823F4E043FB60FB6823F450
:103FA0004073FB603B681B681B02FA681343FB60AD
:103FB0007B6923F020037B613B689B681B017A6966
:103FC00013437B617B681E4A93420DD17B6923F0CA
:103FD00080037B613B68DB681B017A6913437B616B
:103FE0007B6923F040037B617B68154A934213D1C0
:103FF0003B6923F480633B613B6923F400633B61CD
:104000003B685B699B003A6913433B613B689B6972
:104010009B003A6913433B617B683A695A607B684D
:10402000FA689A613B685A687B689A637B687A6928
:104030001A6200BF1C37BD465DF8047B704700BFA5
:104040000000014080B487B000AF786039607B68C1
:104050001B6A7B617B681B6A23F480727B681A622F
:104060007B685B683B617B68DB69FB60FB6823F016
:104070007003FB60FB6823F00303FB603B681B6875
:10408000FA681343FB607B6923F400737B613B6830
:104090009B681B027A6913437B617B681D4A9342CC
:1040A0000DD17B6923F400637B613B68DB681B02F5
:1040B0007A6913437B617B6923F480637B617B684E
:1040C000144A934213D13B6923F480533B613B690B
:1040D00023F400533B613B685B691B013A6913435E
:1040E0003B613B689B691B013A6913433B617B68F9
:1040F0003A695A607B68FA68DA613B685A687B689B
:10410000DA637B687A691A6200BF1C37BD465DF8C6
:10411000047B70470000014080B487B000AF786036
:1041200039607B681B6A3B617B681B6A23F48052A1
:104130007B681A627B685B687B617B68DB69FB601C
:10414000FB6823F4E043FB60FB6823F44073FB60EF
:104150003B681B681B02FA681343FB603B6923F44E
:1041600000533B613B689B681B033A6913433B6107
:104170007B68104A934209D17B6923F480437B61B9
:104180003B685B699B017A6913437B617B687A6951
:104190005A607B68FA68DA613B685A687B681A641F
:1041A0007B683A691A6200BF1C37BD465DF8047B24
:1041B000704700BF0000014080B487B000AFF860D6
:1041C000B9607A60FB681B6A7B61FB681B6A23F03D
:1041D0000102FB681A62FB689B693B613B6923F043
:1041E000F0033B617B681B013A6913433B617B69C8
:1041F00023F00A037B617A69BB6813437B61FB6828
:104200003A699A61FB687A691A6200BF1C37BD4639
:104210005DF8047B704780B487B000AFF860B96088
:104220007A60FB681B6A7B61FB681B6A23F01002E3
:10423000FB681A62FB689B693B613B6923F470432E
:104240003B617B681B033A6913433B617B6923F045
:10425000A0037B61BB681B017A6913437B61FB6828
:104260003A699A61FB687A691A6200BF1C37BD46D9
:104270005DF8047B704780B485B000AF786039602A
:104280007B689B68FB60FB6823F07003FB603A6807
:10429000FB68134343F00703FB607B68FA689A608E
:1042A00000BF1437BD465DF8047B704780B487B00B
:1042B00000AFF860B9607A603B60FB689B687B6127
:1042C0007B6923F47F437B613B681A027B681A4356
:1042D000BB6813437A6913437B61FB687A699A6010
:1042E00000BF1C37BD465DF8047B704780B487B0C3
:1042F00000AFF860B9607A60BB6803F01F03012269
:1043000002FA03F37B61FB681A6A7B69DB431A409C
:10431000FB681A62FB681A6ABB6803F01F037968BE
:1043200001FA03F31A43FB681A6200BF1C37BD464B
:104330005DF8047B7047000080B485B000AF786002
:1043400039607B6893F83C30012B01D1022350E0A7
:104350007B68012283F83C207B68022283F83D20A1
:104360007B681B685B68FB607B681B689B68BB6045
:10437000FB6823F07003FB603B681B68FA6813431B
:10438000FB607B681B68FA685A607B681B681C4A84
:10439000934218D07B681B68B3F1804F13D07B68C1
:1043A0001B68184A93420ED07B681B68164A9342DA
:1043B00009D07B681B68154A934204D07B681B6850
:1043C000134A93420CD1BB6823F08003BB603B6867
:1043D0005B68BA681343BB607B681B68BA689A6005
:1043E0007B68012283F83D207B68002283F83C2013
:1043F000002318461437BD465DF8047B704700BFA4
:10440000000001400004004000080040000C004093
:104410000040014080B485B000AF7860396000236F
:10442000FB607B6893F83C30012B01D102233DE017
:104430007B68012283F83C20FB6823F0FF023B6885
:10444000DB681343FB60FB6823F440723B689B68A6
:104450001343FB60FB6823F480623B685B68134393
:10446000FB60FB6823F400623B681B681343FB603E
:10447000FB6823F480523B681B691343FB60FB68B5
:1044800023F400523B685B691343FB60FB6823F431
:1044900080423B68DB691343FB607B681B68FA68FA
:1044A0005A647B68002283F83C20002318461437A6
:1044B000BD465DF8047B704780B483B000AF786080
:1044C00000BF0C37BD465DF8047B704780B483B0F5
:1044D00000AF786000BF0C37BD465DF8047B7047C5
:1044E00080B582B000AF78607B68002B01D10123DA
:1044F00042E07B6893F84130DBB2002B06D17B6849
:10450000002283F840207868FDF702FA7B682422B5
:1045100083F841207B681B68DA687B681B6822F49B
:104520000052DA60786800F02BF87B681B681A6923
:104530007B681B6822F490421A617B681B685A6989
:104540007B681B6822F02A025A617B681B68DA6864
:104550007B681B6842F40052DA607B6800225A6470
:104560007B68202283F841207B68202283F8422048
:104570007B6800225A63002318460837BD4680BD79
:104580002DE9B04FC0B000AFC7F8F400D7F8F43051
:104590001B681B6923F44050D7F8F430D968D7F86A
:1045A000F4301A6840EA01031361D7F8F4309A68CE
:1045B000D7F8F4301B691A43D7F8F4305B691A4313
:1045C000D7F8F430DB691343C7F8F830D7F8F43084
:1045D0001B68DB6823F4164121F00C01D7F8F43096
:1045E0001A68D7F8F8300B43D360D7F8F4301B685B
:1045F0005B6923F44070D7F8F4309969D7F8F43048
:104600001A6840EA01035361D7F8F4301A688F4BF7
:104610009A4205D0D7F8F4301A688D4B9A4204D1EB
:10462000FEF7C6F9C7F8FC0003E0FEF7ADF9C7F8DE
:10463000FC00D7F8F430DB69B3F5004F40F00C8193
:10464000D7F8FC300022C7F8E830C7F8EC20D7E9EB
:104650003A4522462B469118B9655B41FB65D7E97F
:104660001623214612EB0108294643EB01094FF0BE
:1046700000024FF000034FEAC90343EA58734FEAC0
:10468000C80290469946234618EB0303C7F8E0306A
:104690002B4649EB0303C7F8E430D7F8F4305B68E6
:1046A0000022C7F8D830C7F8DC20D7E936120B460D
:1046B000DB183B65134642EB03037B65D7E9142304
:1046C000D7E93801FCF778FA02460B46614BA3FBA9
:1046D00002235B091C01D7F8FC300022C7F8D03058
:1046E000C7F8D420D7E9348942464B469118B964BB
:1046F0005B41FB64D7E91223414612EB010A4946AC
:1047000043EB010B4FF000024FF000034FEACB03E5
:1047100043EA5A734FEACA0292469B4643461AEB53
:104720000303C7F8C8304B464BEB0303C7F8CC3044
:10473000D7F8F4305B680022C7F8C030C7F8C4204F
:10474000D7E930120B46DB183B64134642EB0303F8
:104750007B64D7E91023D7E93201FCF72DFA024632
:104760000B4611463B4BA3FB01235B09642202FB72
:1047700003F3CB1ADB0003F13202364BA3FB022317
:104780005B095B0003F4F8731C44D7F8FC3000228B
:10479000C7F8B830C7F8BC20D7E92E8942464B4647
:1047A0009118B9635B41FB63D7E90E234146511869
:1047B000396349464B417B634FF000024FF00003E1
:1047C000D7E90CAB5946CB00514643EA51735146E9
:1047D000CA0010461946034642469B18C7F8B03037
:1047E0004B460A4642EB0303C7F8B430D7F8F4301F
:1047F0005B680022C7F8A830C7F8AC20D7E92A12B6
:104800000B46DB18BB62134642EB0303FB62D7E99E
:104810000A23D7E92C01FCF7CFF902460B460D4BD2
:10482000A3FB02135B09642101FB03F3D31ADB0032
:104830003233084AA2FB03235B0903F00702D7F8CF
:10484000F4301B6822449A6006E100BF001001406A
:10485000001401401F85EB51D7F8FC300022C7F847
:10486000A030C7F8A420D7E9288942464B469118C2
:1048700039625B417B62D7E90823414654184946B7
:1048800043EB01054FF000024FF00003EB0043EA59
:104890005473E20014461D464346E318C7F89830A7
:1048A0004B4645EB0303C7F89C30D7F8F4305B6800
:1048B0000022C7F89030C7F894204FF000024FF064
:1048C0000003D7E9244529468B00214643EA91732A
:1048D00021468A00D7E92601FCF76EF902460B460D
:1048E000604BA3FB02235B091C01D7F8FC300022BC
:1048F000C7F88830C7F88C20D7E9228942464B4652
:104900009118B9615B41FB61D7E906234146511813
:10491000396149464B417B614FF000024FF0000383
:10492000D7E904AB5946CB00514643EA517351468F
:10493000CA0010461946034642469B18C7F8803005
:104940004B460A4642EB0303C7F88430D7F8F430ED
:104950005B680022BB67FA674FF000024FF000036C
:10496000D7E91E8949468B00414643EA9173414687
:104970008A00D7E92001FCF71FF902460B461146D1
:10498000384BA3FB01235B09642202FB03F3CB1A20
:104990001B013233334AA2FB03235B0903F0F0030C
:1049A0001C44D7F8FC3000223B677A67D7E91C89A2
:1049B00042464B469118B9605B41FB60D7E9022340
:1049C00041465118396049464B417B604FF0000227
:1049D0004FF00003D7E900AB5946CB00514643EAFC
:1049E00051735146CA0010461946034642469B1869
:1049F000BB664B460A4642EB0303FB66D7F8F4302E
:104A00005B6800223B667A664FF000024FF00003BD
:104A1000D7E9188949468B00414643EA91734146DC
:104A20008A00D7E91A01FCF7C7F802460B460D4B7E
:104A3000A3FB02135B09642101FB03F3D31A1B01DF
:104A40003233084AA2FB03235B0903F00F02D7F8B5
:104A5000F4301B6822449A6000BF07F58077BD469A
:104A6000BDE8B08F1F85EB5180B586B000AFF86010
:104A7000B9607A600123FB750023FB740023BB75CA
:104A800000237B7500233B75FB68002B05D07B68FA
:104A9000002B02D0BB68002B02D10023FB7551E034
:104AA0000023BB754BE000233B750FE03A7DFB68AC
:104AB00053F822003A7DFB68083233F812300022A6
:104AC0001946FDF7FDFA3B7D01333B753B7D032B1A
:104AD000ECD9BA7DFB6853F82200BA7DFB68083236
:104AE00033F8123001221946FDF7EAFA0A20FCF7E2
:104AF000F3FF00237B751CE07A7DBB6853F822002E
:104B00007A7DBB68083233F812301946FDF7C0FAD7
:104B10000346FB74FB7C012B08D1BA7D7B7D0C49DD
:104B200092000A4413441A787B681A707B7D013323
:104B30007B757B7D032BDFD9BB7D0133BB75BB7DD3
:104B4000032BB0D9FB7D18461837BD4680BD00BF8A
:104B50001079000880B584B000AF78600123FB7342
:104B60007B68002B02D10023FB733EE01420FCF78E
:104B7000B3FF3821786800F03DF80346FB73052049
:104B8000FCF7AAFF3821786800F034F80346FB737D
:104B90000120FCF7A1FF3821786800F02BF80346CC
:104BA000FB730121786800F025F80346FB730221AE
:104BB000786800F01FF80346FB730621786800F060
:104BC00019F80346FB730C21786800F013F80346CC
:104BD000FB732821786800F00DF80346FB738021F1
:104BE000786800F007F80346FB73FB7B1846103724
:104BF000BD4680BD80B584B000AF78600B46FB70C9
:104C00000123FB737B68002B02D10023FB7321E09F
:104C10007B6818687B689B8800221946FDF750FA6C
:104C2000FB781B09DBB21946786800F07AF8034676
:104C3000FB73786800F0B4F80346FB73FB78194601
:104C4000786800F06EF80346FB73786800F0A8F807
:104C50000346FB73FB7B18461037BD4680BD80B50D
:104C600084B000AF78600B46FB700123FB737B6858
:104C7000002B02D10023FB7321E07B6818687B685E
:104C80009B8801221946FDF71BFAFB781B09DBB252
:104C90001946786800F045F80346FB73786800F021
:104CA0007FF80346FB73FB781946786800F039F803
:104CB0000346FB73786800F073F80346FB73FB7BD5
:104CC00018461037BD4680BD80B586B000AFF8608D
:104CD0007B600B46FB721346BB720123FB75FB68BE
:104CE000002B02D10023FB7516E0BA7AFB7A194635
:104CF000F86800F073F80346FB7509E07B685A1CFE
:104D00007A601B781946F868FFF7A9FF0346FB7520
:104D10007B681B78002BF1D1FB7D18461837BD4608
:104D200080BD80B584B000AF78600B46FB70012376
:104D3000FB737B6818697B68198CFB7803F00103AF
:104D4000DBB21A46FDF7BCF97B6858697B68598C61
:104D5000FB785B08DBB203F00103DBB21A46FDF718
:104D6000AFF97B6898697B68998CFB789B08DBB20C
:104D700003F00103DBB21A46FDF7A2F97B68D8699C
:104D80007B68D98CFB78DB08DBB203F00103DBB274
:104D90001A46FDF795F9FB7B18461037BD4680BDD6
:104DA00080B584B000AF78600123FB737B6898689E
:104DB0007B689B8901221946FDF782F90A20FCF7DE
:104DC0008BFE7B6898687B689B8900221946FDF7FB
:104DD00077F9FB7B18461037BD4680BD80B584B09F
:104DE00000AF78600B46FB701346BB700123FB736A
:104DF000BB78013BBB70FB78013B032B32D801A28F
:104E000052F823F0154E0008294E00083D4E0008C8
:104E1000514E0008BB78803BDBB219467868FFF73B
:104E2000E9FE0346FB731DE0BB78403BDBB219464D
:104E30007868FFF7DFFE0346FB7313E0BB786C3B3B
:104E4000DBB219467868FFF7D5FE0346FB7309E02D
:104E5000BB782C3BDBB219467868FFF7CBFE0346E4
:104E6000FB7300BFFB7B18461037BD4680BD00BFFB
:104E700080B582B000AF78607B681B790C2B35D889
:104E800001A252F823F000BFBD4E0008ED4E00080D
:104E9000ED4E0008ED4E0008C94E0008ED4E00082A
:104EA000ED4E0008ED4E0008D54E0008ED4E00080E
:104EB000ED4E0008ED4E0008E14E00087B681B68CF
:104EC0001B68C8225A6311E07B681B681B68C822F4
:104ED0009A630BE07B681B681B68C822DA6305E0F5
:104EE0007B681B681B68C8221A6400BF7B681A684D
:104EF0007B681B7919461046FEF7EAFB00BF0837AE
:104F0000BD4680BD80B582B000AF78607B681B79FC
:104F10000C2B35D801A252F823F000BF514F0008E6
:104F2000814F0008814F0008814F00085D4F000845
:104F3000814F0008814F0008814F0008694F000829
:104F4000814F0008814F0008814F0008754F00080D
:104F50007B681B681B6896225A6311E07B681B689C
:104F60001B6896229A630BE07B681B681B6896227D
:104F7000DA6305E07B681B681B6896221A6400BF31
:104F80007B681A687B681B7919461046FEF7A0FB00
:104F900000BF0837BD4680BD2DE9FF4757EC106BB9
:104FA000002F0C4619463B46BBBF07F100431F4686
:104FB00000232D230B700D9BDDF830A0914623F0CC
:104FC0002008BCBF32461646B8F1460F05D0B8F1EE
:104FD000450F00D10134022100E0032103AB01930E
:104FE00002AB009347EC106B5346224600F03CFEA8
:104FF000B8F1470F054619D119F0010F0ED000EB9B
:1050000004090022002330463946FBF765FD08B14C
:10501000CDF80C903022039B4B451ED3039B0E9A78
:105020005B1B2846136004B0BDE8F087B8F1460F5B
:1050300000EB0409E5D10378302B0AD100220023CC
:1050400030463946FBF748FD18B9C4F10104CAF8E7
:105050000040DAF800309944D3E7591C03911A70E4
:10506000D9E7F7B50029BABF49422D232B230929D7
:105070000270437029DD0DF107031D460A271A4609
:10508000B1FBF7F607FB1614303402F8014C0C465E
:10509000632C03F1FF333146F1DC3031941E03F809
:1050A000011C411C2346AB420AD30DF109039B1A94
:1050B000AC4288BF002302330344181A03B0F0BD8A
:1050C00013F8016B01F8016FEDE730233031837085
:1050D000C170031DF1E700002DE9F04F8DB00C46C3
:1050E000DDF8588016461F46054600F0BBFC0368F5
:1050F00004931846FBF7C4F800230A93D8F800304D
:105100000590073323F0070303F1080294F818A071
:10511000D4F800B0C8F80020D3E9008929F0004392
:105120000793CDF81880C4E91289DDE906019C4B8C
:105130004FF0FF32FBF702FD70BBDDE90601984B33
:105140004FF0FF32FBF7DCFC30BB0022002340466F
:105150004946FBF7CBFC10B12D2384F84330914A2C
:10516000914BBAF1470F94BF9046984603232361B1
:105170002BF0040323604FF00009009733460BAA7D
:105180002146284600F0D2F9013040F08D804FF0E2
:10519000FF300DB0BDE8F08F42464B4640464946D1
:1051A000FBF7CCFC40B14B46002BBCBF2D2384F851
:1051B00043307E4A7E4BD4E763680AF0DF020692F2
:1051C0005A1C3BD1062363604BF4806200232260AB
:1051D00003930AABCDE901A309AB0093616849ECE5
:1051E000108B0DF123032846FFF7D6FE069B099985
:1051F000472B804629D1C81C02DB6368994241DDF8
:10520000AAF1020A5FFA8AFA0139524604F1500003
:105210000991FFF726FF0A9A1318012A8146236194
:1052200002DC2268D20701D5013323619DF82330C7
:10523000002BA2D02D2384F843309EE7069A472AFC
:10524000C2D1002BC0D10123BDE7BAF1650FDBD974
:10525000BAF1660F18D1002963680BDD216113B91B
:105260002268D00702D501330B442361A1654FF0BA
:105270000009DBE713B92268D20701D50233F4E74E
:105280000123F2E74FF0670A0A9B994205DB236886
:105290002161D807EAD54B1CE7E70029D4BFC1F14B
:1052A000020201221344E0E723685A0507D4236968
:1052B000424631462846B84701302BD167E7BAF15C
:1052C000650F40F2DD80D4E9120100220023FBF7D4
:1052D00003FC002833D0374A012331462846B8471B
:1052E00001303FF454AFDDE90938434502DB236860
:1052F000D8070FD5DDE9042331462846B8470130E9
:105300003FF445AF4FF0000908F1FF3804F11A0AE5
:10531000C84509DC23689B0700F10381E0680B9B0B
:105320009842B8BF184634E7012352463146284612
:10533000B84701303FF42BAF09F10109E8E7099BB9
:10534000002B39DC1B4A012331462846B84701307F
:105350003FF41DAFDDE9093959EA030302D123689F
:10536000D907D7D5DDE9042331462846B8470130AF
:105370003FF40DAF4FF0000A04F11A0B099B5B429A
:10538000534501DC4B4693E701235A4631462846F4
:10539000B84701303FF4FBAE0AF1010AEEE700BF67
:1053A000FFFFEF7F207900082479000828790008A2
:1053B0002C79000830790008A36DDDF828A053454A
:1053C000A8BF5346002B994636DC4FF0000B29EA64
:1053D000E97904F11A02A36D0693A3EB09035B4577
:1053E00031DC099B9A453ADC2368DA0737D4099BFC
:1053F000AAEB0309069BAAEB03039945A8BF9946AC
:10540000B9F1000F33DC4FF0000829EAE97904F123
:105410001A0B099BAAEB0303A3EB090343457FF790
:1054200079AF01235A4631462846B84701303FF448
:10543000AEAE08F10108ECE7424631462846B847CF
:105440000130C2D1A3E60123314628460692B8476F
:1054500001303FF49CAE069A0BF1010BBBE7DDE98E
:10546000042331462846B8470130C0D18FE6069A5A
:105470004B46424431462846B8470130C3D186E600
:10548000DDF828A0BAF1010F01DCDB0736D50123D6
:10549000424631462846B84701303FF478AEDDE950
:1054A000042331462846B84701303FF470AED4E9B2
:1054B0001201002200230AF1FF3AFBF70DFBC0B9ED
:1054C000534608F1010231462846B84701300CD155
:1054D0005DE601235A4631462846B84701303FF47D
:1054E00056AE08F10108D045F3DB4B4604F15002FB
:1054F000DFE64FF0000804F11A0BF4E701234246FF
:10550000E1E701234A4631462846B84701303FF4D7
:105510003EAE08F10108E3680B995B1A4345F0DCE5
:10552000FCE64FF0000804F11909F4E72DE9F04713
:10553000164698468A680B69DDF820909342B8BFFA
:105540001346336091F8432007460C460AB10133F5
:1055500033602368990642BF33680233336025689D
:1055600015F0060506D104F1190AE36832689B1AA2
:10557000AB4226DC94F843302268003B18BF01237D
:1055800092062BD404F1430241463846C847013005
:105590001ED02368226903F00603042B02BFE568CE
:1055A0003368ED1AA3680CBF25EAE5750025934220
:1055B000C4BF9B1AED1800261A34B5421AD1002038
:1055C00008E00123524641463846C847013003D11E
:1055D0004FF0FF30BDE8F0870135C6E7E1185A1CEF
:1055E000302081F84300224494F8451082F843109B
:1055F0000233C7E70123224641463846C8470130F7
:10560000E6D00136D9E700002DE9FF470F7E0C9E5A
:10561000782F914680460C469A4601F1430207D8FE
:10562000622F0AD8002F00F0D280582F00F0B980E6
:1056300004F1420684F842703AE0A7F16303152BA7
:10564000F6D801A151F823F0A1560008B55600087C
:10565000315600083156000831560008315600080E
:10566000B55600083156000831560008315600087A
:1056700031560008B5570008DF5600086F5700087C
:105680003156000831560008D75700083156000837
:10569000DF560008315600083156000877570008D9
:1056A00033681A1D1B68326004F1420684F84230E8
:1056B00001239DE033682068191D3160060601D57D
:1056C0001D6803E04506FBD5B3F90050002D03DA51
:1056D0002D236D4284F8433059480A2311E0216894
:1056E0003368080653F8045B02D4490648BFADB2DC
:1056F0006F2F5348336014BF0A230823002184F816
:1057000043106668A660002EA2BF216821F0040144
:1057100021600DB9002E4BD01646B5FBF3F103FB0B
:105720001157C75D06F8017D2F46BB420D46F4D9DF
:10573000082B0BD12368DF0708D5236961689942DC
:10574000DEBF302306F8013C06F1FF36921B2261D2
:10575000CDF800A04B4603AA21464046FFF7E6FEDF
:1057600001304AD14FF0FF3004B0BDE8F087236824
:1057700043F0200323603348782784F8457023687A
:1057800031681F0651F8045B02D45F0648BFADB212
:105790003160D90744BF43F0200323601DB11023BB
:1057A000ACE72748E9E7236823F020032360F6E706
:1057B0001646BDE7336825686169181D30602E06FE
:1057C0001B6801D5196002E06806FBD5198000232B
:1057D00023611646BCE733681A1D32601E68626892
:1057E00000213046FAF7FCFC08B1801B606063685A
:1057F0002361002384F84330AAE7236932464946EF
:105800004046D0470130ADD023689B0713D4E068F1
:10581000039B9842B8BF1846A6E701233246494683
:105820004046D04701309DD00135E36803995B1AAB
:10583000AB42F2DCEBE7002504F11906F5E700BF07
:105840003279000843790008002310B50446C0E906
:105850000033C0E90433836081814366C281836180
:10586000194608225C3000F0F4F80D4B63620D4BD2
:10587000A3620D4BE3620D4B23630D4B24629C42EC
:1058800006D003F16802944202D0D0339C4205D185
:1058900004F15800BDE8104000F058B910BD00BF39
:1058A000CD590008EF590008275A00084B5A000844
:1058B00050030020024A0349034800F069B800BFC2
:1058C00070000020FD7100088000002041680C4B32
:1058D000994210B5044601D001F090FCA168094B33
:1058E000994202D0204601F089FCE168064B9942BA
:1058F00004D02046BDE8104001F080BC10BD00BFC0
:1059000050030020B80300202004002010B50B4BEA
:105910000B4C0C4A1A60204600220421FFF794FF2A
:1059200004F1680001220921FFF78EFF04F1D00085
:105930000222BDE810401221FFF786BF8804002034
:1059400050030020B5580008014800F000B900BF1E
:1059500091040020014800F0FBB800BF9104002032
:1059600010B50446FFF7F0FF236A1BB1BDE81040F5
:10597000FFF7F0BF044B2362044B1B68002BF5D1EB
:10598000FFF7C4FFF2E700BFCD58000888040020ED
:105990002DE9F8430746884614460026D4E90195C8
:1059A000B9F1010905D52468002CF7D13046BDE8CE
:1059B000F883AB89012B07D9B5F90E30013303D039
:1059C00029463846C04706436835E9E710B50C4616
:1059D000B1F90E1000F06CF80028ABBF636DA3891D
:1059E0001B1823F48053ACBF6365A38110BD2DE960
:1059F000F0411F468B89DB0505460C46164605D54A
:105A0000B1F90E100223002200F040F8A389B4F986
:105A10000E1023F48053A38132463B462846BDE84E
:105A2000F04100F057B810B50C46B1F90E1000F077
:105A30002DF8431CA38915BF606523F4805343F4FC
:105A40008053A38118BFA38110BDB1F90E1000F0DF
:105A50000DB802440346934200D1704703F8011B7E
:105A6000F9E7000000487047BC01002038B5064D3A
:105A70000023044608462B60FBF792FD431C02D12D
:105A80002B6803B1236038BD8C04002038B5074D66
:105A900004460846114600222A601A46FBF7A7FD75
:105AA000431C02D12B6803B1236038BD8C04002055
:105AB00038B5074D04460846114600222A601A46AA
:105AC000FBF735FD431C02D12B6803B1236038BDC1
:105AD0008C04002038B5074D0446084611460022C4
